{
  "contractName": "QAForum",
  "abi": [
    {
      "inputs": [],
      "stateMutability": "nonpayable",
      "type": "constructor"
    },
    {
      "anonymous": false,
      "inputs": [
        {
          "indexed": true,
          "internalType": "uint256",
          "name": "answerId",
          "type": "uint256"
        },
        {
          "indexed": true,
          "internalType": "uint256",
          "name": "questionId",
          "type": "uint256"
        }
      ],
      "name": "AnswerAccepted",
      "type": "event"
    },
    {
      "anonymous": false,
      "inputs": [
        {
          "indexed": true,
          "internalType": "uint256",
          "name": "answerId",
          "type": "uint256"
        },
        {
          "indexed": false,
          "internalType": "string",
          "name": "text",
          "type": "string"
        },
        {
          "indexed": false,
          "internalType": "address",
          "name": "answerer",
          "type": "address"
        }
      ],
      "name": "AnswerGiven",
      "type": "event"
    },
    {
      "anonymous": false,
      "inputs": [
        {
          "indexed": true,
          "internalType": "address",
          "name": "user",
          "type": "address"
        },
        {
          "indexed": false,
          "internalType": "uint256",
          "name": "updatedBalance",
          "type": "uint256"
        }
      ],
      "name": "BalanceUpdate",
      "type": "event"
    },
    {
      "anonymous": false,
      "inputs": [
        {
          "indexed": true,
          "internalType": "uint256",
          "name": "questionId",
          "type": "uint256"
        },
        {
          "indexed": false,
          "internalType": "string",
          "name": "text",
          "type": "string"
        },
        {
          "indexed": false,
          "internalType": "address",
          "name": "questioner",
          "type": "address"
        }
      ],
      "name": "QuestionAsked",
      "type": "event"
    },
    {
      "anonymous": false,
      "inputs": [
        {
          "indexed": true,
          "internalType": "uint256",
          "name": "questionId",
          "type": "uint256"
        }
      ],
      "name": "QuestionResolved",
      "type": "event"
    },
    {
      "anonymous": false,
      "inputs": [
        {
          "indexed": true,
          "internalType": "address",
          "name": "user",
          "type": "address"
        },
        {
          "indexed": false,
          "internalType": "uint256",
          "name": "amount",
          "type": "uint256"
        },
        {
          "indexed": false,
          "internalType": "uint256",
          "name": "updatedBalance",
          "type": "uint256"
        }
      ],
      "name": "TokensPurchased",
      "type": "event"
    },
    {
      "anonymous": false,
      "inputs": [
        {
          "indexed": false,
          "internalType": "address",
          "name": "user",
          "type": "address"
        }
      ],
      "name": "UserBanned",
      "type": "event"
    },
    {
      "anonymous": false,
      "inputs": [
        {
          "indexed": true,
          "internalType": "uint256",
          "name": "id",
          "type": "uint256"
        },
        {
          "indexed": false,
          "internalType": "string",
          "name": "username",
          "type": "string"
        },
        {
          "indexed": false,
          "internalType": "uint256",
          "name": "balance",
          "type": "uint256"
        }
      ],
      "name": "UserRegistered",
      "type": "event"
    },
    {
      "anonymous": false,
      "inputs": [
        {
          "indexed": false,
          "internalType": "address",
          "name": "user",
          "type": "address"
        }
      ],
      "name": "UserUnbanned",
      "type": "event"
    },
    {
      "inputs": [],
      "name": "TOKEN_PRICE",
      "outputs": [
        {
          "internalType": "uint256",
          "name": "",
          "type": "uint256"
        }
      ],
      "stateMutability": "view",
      "type": "function"
    },
    {
      "inputs": [
        {
          "internalType": "uint256",
          "name": "",
          "type": "uint256"
        }
      ],
      "name": "answers",
      "outputs": [
        {
          "internalType": "uint256",
          "name": "id",
          "type": "uint256"
        },
        {
          "internalType": "string",
          "name": "text",
          "type": "string"
        },
        {
          "internalType": "address",
          "name": "answerer",
          "type": "address"
        },
        {
          "internalType": "bool",
          "name": "accepted",
          "type": "bool"
        }
      ],
      "stateMutability": "view",
      "type": "function"
    },
    {
      "inputs": [],
      "name": "owner",
      "outputs": [
        {
          "internalType": "address",
          "name": "",
          "type": "address"
        }
      ],
      "stateMutability": "view",
      "type": "function"
    },
    {
      "inputs": [
        {
          "internalType": "uint256",
          "name": "",
          "type": "uint256"
        }
      ],
      "name": "questions",
      "outputs": [
        {
          "internalType": "uint256",
          "name": "id",
          "type": "uint256"
        },
        {
          "internalType": "string",
          "name": "title",
          "type": "string"
        },
        {
          "internalType": "string",
          "name": "text",
          "type": "string"
        },
        {
          "internalType": "address",
          "name": "questioner",
          "type": "address"
        },
        {
          "internalType": "uint256",
          "name": "reward",
          "type": "uint256"
        },
        {
          "internalType": "bool",
          "name": "resolved",
          "type": "bool"
        }
      ],
      "stateMutability": "view",
      "type": "function"
    },
    {
      "inputs": [],
      "name": "rp",
      "outputs": [
        {
          "internalType": "contract RewardPoint",
          "name": "",
          "type": "address"
        }
      ],
      "stateMutability": "view",
      "type": "function"
    },
    {
      "inputs": [
        {
          "internalType": "address",
          "name": "",
          "type": "address"
        }
      ],
      "name": "users",
      "outputs": [
        {
          "internalType": "uint256",
          "name": "id",
          "type": "uint256"
        },
        {
          "internalType": "string",
          "name": "username",
          "type": "string"
        },
        {
          "internalType": "uint256",
          "name": "balance",
          "type": "uint256"
        },
        {
          "internalType": "bool",
          "name": "banned",
          "type": "bool"
        }
      ],
      "stateMutability": "view",
      "type": "function"
    },
    {
      "inputs": [],
      "name": "isUser",
      "outputs": [
        {
          "internalType": "bool",
          "name": "",
          "type": "bool"
        }
      ],
      "stateMutability": "view",
      "type": "function"
    },
    {
      "inputs": [
        {
          "internalType": "string",
          "name": "username",
          "type": "string"
        }
      ],
      "name": "registerUser",
      "outputs": [],
      "stateMutability": "nonpayable",
      "type": "function"
    },
    {
      "inputs": [
        {
          "internalType": "uint256",
          "name": "tokenCount",
          "type": "uint256"
        }
      ],
      "name": "purchaseTokens",
      "outputs": [],
      "stateMutability": "payable",
      "type": "function"
    },
    {
      "inputs": [
        {
          "internalType": "string",
          "name": "title",
          "type": "string"
        },
        {
          "internalType": "string",
          "name": "text",
          "type": "string"
        },
        {
          "internalType": "uint256",
          "name": "rewardPoints",
          "type": "uint256"
        }
      ],
      "name": "askQuestion",
      "outputs": [
        {
          "internalType": "uint256",
          "name": "",
          "type": "uint256"
        }
      ],
      "stateMutability": "nonpayable",
      "type": "function"
    },
    {
      "inputs": [
        {
          "internalType": "uint256",
          "name": "questionId",
          "type": "uint256"
        },
        {
          "internalType": "uint256",
          "name": "anwserId",
          "type": "uint256"
        }
      ],
      "name": "resolveQuestion",
      "outputs": [],
      "stateMutability": "nonpayable",
      "type": "function"
    },
    {
      "inputs": [
        {
          "internalType": "uint256",
          "name": "questionId",
          "type": "uint256"
        },
        {
          "internalType": "string",
          "name": "text",
          "type": "string"
        }
      ],
      "name": "postAnswer",
      "outputs": [],
      "stateMutability": "nonpayable",
      "type": "function"
    }
  ],
  "bytecode": "0x6080604052600160005560018055600160025534801561001e57600080fd5b5060405161002b90610077565b604051809103906000f080158015610047573d6000803e3d6000fd5b50600680546001600160a01b03929092166001600160a01b03199283161790556007805490911633179055610084565b611c288061158083390190565b6114ed806100936000396000f3fe6080604052600436106100a75760003560e01c80638da5cb5b116100645780638da5cb5b1461019f578063904c1e1f146101d7578063a87430ba146101f7578063c921d66c14610227578063cacf1b5114610247578063d2d8cb671461026757600080fd5b806317599cc5146100ac57806331b1b978146100e55780634c22c11914610117578063516fa9101461013c578063704f1b941461016a5780637b97008d1461018c575b600080fd5b3480156100b857600080fd5b506100cc6100c7366004610f85565b610283565b6040516100dc9493929190610fe4565b60405180910390f35b3480156100f157600080fd5b50610105610100366004610f85565b610344565b6040516100dc9695949392919061101e565b34801561012357600080fd5b5061012c610498565b60405190151581526020016100dc565b34801561014857600080fd5b5061015c6101573660046110bc565b6104ba565b6040519081526020016100dc565b34801561017657600080fd5b5061018a6101853660046111d3565b610773565b005b61018a61019a366004610f85565b6108e4565b3480156101ab57600080fd5b506007546101bf906001600160a01b031681565b6040516001600160a01b0390911681526020016100dc565b3480156101e357600080fd5b506006546101bf906001600160a01b031681565b34801561020357600080fd5b50610217610212366004611210565b610a03565b6040516100dc9493929190611240565b34801561023357600080fd5b5061018a610242366004611271565b610ab8565b34801561025357600080fd5b5061018a6102623660046112b8565b610c4d565b34801561027357600080fd5b5061015c670de0b6b3a764000081565b600560205260009081526040902080546001820180549192916102a5906112da565b80601f01602080910402602001604051908101604052809291908181526020018280546102d1906112da565b801561031e5780601f106102f35761010080835404028352916020019161031e565b820191906000526020600020905b81548152906001019060200180831161030157829003601f168201915b505050600290930154919250506001600160a01b0381169060ff600160a01b9091041684565b60036020526000908152604090208054600182018054919291610366906112da565b80601f0160208091040260200160405190810160405280929190818152602001828054610392906112da565b80156103df5780601f106103b4576101008083540402835291602001916103df565b820191906000526020600020905b8154815290600101906020018083116103c257829003601f168201915b5050505050908060020180546103f4906112da565b80601f0160208091040260200160405190810160405280929190818152602001828054610420906112da565b801561046d5780601f106104425761010080835404028352916020019161046d565b820191906000526020600020905b81548152906001019060200180831161045057829003601f168201915b505050506003830154600484015460069094015492936001600160a01b039091169290915060ff1686565b3360009081526004602052604081205481036104b45750600090565b50600190565b336000908152600460205260408120600201548211156105215760405162461bcd60e51b815260206004820152601d60248201527f596f7520646f6e2774206861766520656e6f75676820746f6b656e732e00000060448201526064015b60405180910390fd5b60065460405163d1660f9960e01b8152336004820152306024820152604481018490526001600160a01b039091169063d1660f9990606401600060405180830381600087803b15801561057357600080fd5b505af1158015610587573d6000803e3d6000fd5b505033600090815260046020526040812060020180548694509092506105ae90849061132a565b9250508190555060606040518060e00160405280600054815260200188888080601f016020809104026020016040519081016040528093929190818152602001838380828437600092019190915250505090825250604080516020601f8901819004810282018101909252878152918101919088908890819084018382808284376000920182905250938552505033602080850191909152604080850189905260608501879052608090940183905282548352600381529290912083518155918301516001830191506106819082611392565b50604082015160028201906106969082611392565b5060608201516003820180546001600160a01b0319166001600160a01b039092169190911790556080820151600482015560a082015180516106e2916005840191602090910190610f25565b5060c091909101516006909101805460ff191691151591909117905560008054908061070d83611452565b9091555050336000818152600460209081526040918290206002015491519182527f163aa6d2d8e5248ce93dbd22509af93e5f27f8e0edc15c9e26f2867c593e0870910160405180910390a26001600054610768919061132a565b979650505050505050565b60008151116107c45760405162461bcd60e51b815260206004820152601d60248201527f557365726e616d652073686f756c64206e6f7420626520656d7074792e0000006044820152606401610518565b33600090815260046020526040902054156108215760405162461bcd60e51b815260206004820152601860248201527f5573657220616c726561647920726567697374657265642e00000000000000006044820152606401610518565b60408051608081018252600180548252602080830185815260008486018190526060850181905233815260049092529390208251815592519192919082019061086a9082611392565b50604082015160028201556060909101516003909101805460ff19169115159190911790556001805490600061089f83611452565b91905055506001547ff2d07c66e1d089544da15969ab59de00b90251fcc265f55fab51b93532779bd98260006040516108d992919061146b565b60405180910390a250565b3360009081526004602052604081205490036108ff57600080fd5b610911670de0b6b3a76400008261148d565b341461091c57600080fd5b60005b81811015610997576006546040516340d097c360e01b81523360048201526001600160a01b03909116906340d097c390602401600060405180830381600087803b15801561096c57600080fd5b505af1158015610980573d6000803e3d6000fd5b50505050808061098f90611452565b91505061091f565b5033600090815260046020526040812060020180548392906109ba9084906114a4565b9091555050336000818152600460209081526040918290206002015491519182527f163aa6d2d8e5248ce93dbd22509af93e5f27f8e0edc15c9e26f2867c593e087091016108d9565b60046020526000908152604090208054600182018054919291610a25906112da565b80601f0160208091040260200160405190810160405280929190818152602001828054610a51906112da565b8015610a9e5780601f10610a7357610100808354040283529160200191610a9e565b820191906000526020600020905b815481529060010190602001808311610a8157829003601f168201915b50505050600283015460039093015491929160ff16905084565b60008281526003602052604090206006015460ff1615610b1a5760405162461bcd60e51b815260206004820152601960248201527f7175657374696f6e20616c7265616479207265736f6c766564000000000000006044820152606401610518565b60008281526003602081905260409091200154336001600160a01b0390911603610b865760405162461bcd60e51b815260206004820152601e60248201527f63616e277420616e7377657220796f7572206f776e207175657374696f6e00006044820152606401610518565b604080516080810182526002548082526020808301858152338486015260006060850181905292835260059091529290208151815591519091906001820190610bcf9082611392565b50604082810151600292830180546060909501511515600160a01b026001600160a81b03199095166001600160a01b03909216919091179390931790925560008481526003602090815292812082546005909101805460018101825590835293822090930192909255805491610c4483611452565b91905055505050565b600082815260036020819052604090912001546001600160a01b03163314610cb75760405162461bcd60e51b815260206004820152601b60248201527f596f7520617265206e6f7420746865207175657374696f6e65722e00000000006044820152606401610518565b60008281526003602052604090206006015460ff1615610d195760405162461bcd60e51b815260206004820152601d60248201527f5175657374696f6e20697320616c7265616479207265736f6c7665642e0000006044820152606401610518565b6000828152600360209081526040808320600401548484526005835281842082516080810190935280548352600181018054929594919291840191610d5d906112da565b80601f0160208091040260200160405190810160405280929190818152602001828054610d89906112da565b8015610dd65780601f10610dab57610100808354040283529160200191610dd6565b820191906000526020600020905b815481529060010190602001808311610db957829003601f168201915b5050509183525050600291909101546001600160a01b03808216602080850191909152600160a01b90920460ff1615156040938401528383015160016060860181905260008a81526003909452928490206006908101805460ff19169094179093559154925163d1660f9960e01b8152306004820152828216602482015260448101879052939450909291169063d1660f9990606401600060405180830381600087803b158015610e8657600080fd5b505af1158015610e9a573d6000803e3d6000fd5b505050506001600160a01b03811660009081526004602052604081206002018054859290610ec99084906114a4565b90915550506001600160a01b0381166000818152600460209081526040918290206002015491519182527f163aa6d2d8e5248ce93dbd22509af93e5f27f8e0edc15c9e26f2867c593e0870910160405180910390a25050505050565b828054828255906000526020600020908101928215610f60579160200282015b82811115610f60578251825591602001919060010190610f45565b50610f6c929150610f70565b5090565b5b80821115610f6c5760008155600101610f71565b600060208284031215610f9757600080fd5b5035919050565b6000815180845260005b81811015610fc457602081850181015186830182015201610fa8565b506000602082860101526020601f19601f83011685010191505092915050565b848152608060208201526000610ffd6080830186610f9e565b6001600160a01b039490941660408301525090151560609091015292915050565b86815260c06020820152600061103760c0830188610f9e565b82810360408401526110498188610f9e565b6001600160a01b0396909616606084015250506080810192909252151560a0909101529392505050565b60008083601f84011261108557600080fd5b50813567ffffffffffffffff81111561109d57600080fd5b6020830191508360208285010111156110b557600080fd5b9250929050565b6000806000806000606086880312156110d457600080fd5b853567ffffffffffffffff808211156110ec57600080fd5b6110f889838a01611073565b9097509550602088013591508082111561111157600080fd5b5061111e88828901611073565b96999598509660400135949350505050565b634e487b7160e01b600052604160045260246000fd5b600082601f83011261115757600080fd5b813567ffffffffffffffff8082111561117257611172611130565b604051601f8301601f19908116603f0116810190828211818310171561119a5761119a611130565b816040528381528660208588010111156111b357600080fd5b836020870160208301376000602085830101528094505050505092915050565b6000602082840312156111e557600080fd5b813567ffffffffffffffff8111156111fc57600080fd5b61120884828501611146565b949350505050565b60006020828403121561122257600080fd5b81356001600160a01b038116811461123957600080fd5b9392505050565b8481526080602082015260006112596080830186610f9e565b60408301949094525090151560609091015292915050565b6000806040838503121561128457600080fd5b82359150602083013567ffffffffffffffff8111156112a257600080fd5b6112ae85828601611146565b9150509250929050565b600080604083850312156112cb57600080fd5b50508035926020909101359150565b600181811c908216806112ee57607f821691505b60208210810361130e57634e487b7160e01b600052602260045260246000fd5b50919050565b634e487b7160e01b600052601160045260246000fd5b8181038181111561133d5761133d611314565b92915050565b601f82111561138d57600081815260208120601f850160051c8101602086101561136a5750805b601f850160051c820191505b8181101561138957828155600101611376565b5050505b505050565b815167ffffffffffffffff8111156113ac576113ac611130565b6113c0816113ba84546112da565b84611343565b602080601f8311600181146113f557600084156113dd5750858301515b600019600386901b1c1916600185901b178555611389565b600085815260208120601f198616915b8281101561142457888601518255948401946001909101908401611405565b50858210156114425787850151600019600388901b60f8161c191681555b5050505050600190811b01905550565b60006001820161146457611464611314565b5060010190565b60408152600061147e6040830185610f9e565b90508260208301529392505050565b808202811582820484141761133d5761133d611314565b8082018082111561133d5761133d61131456fea2646970667358221220c6a5e921b1ae1780f7d2d2e901b132a0258563163006c522a0702fcb2df2614a64736f6c63430008130033608060405260016006553480156200001657600080fd5b506040518060400160405280600b81526020016a14995dd85c99141bda5b9d60aa1b81525060405180604001604052806002815260200161052560f41b815250816000908162000067919062000124565b50600162000076828262000124565b505050620001f0565b634e487b7160e01b600052604160045260246000fd5b600181811c90821680620000aa57607f821691505b602082108103620000cb57634e487b7160e01b600052602260045260246000fd5b50919050565b601f8211156200011f57600081815260208120601f850160051c81016020861015620000fa5750805b601f850160051c820191505b818110156200011b5782815560010162000106565b5050505b505050565b81516001600160401b038111156200014057620001406200007f565b620001588162000151845462000095565b84620000d1565b602080601f831160018114620001905760008415620001775750858301515b600019600386901b1c1916600185901b1785556200011b565b600085815260208120601f198616915b82811015620001c157888601518255948401946001909101908401620001a0565b5085821015620001e05787850151600019600388901b60f8161c191681555b5050505050600190811b01905550565b611a2880620002006000396000f3fe608060405234801561001057600080fd5b506004361061012c5760003560e01c806370a08231116100ad578063c87b56dd11610071578063c87b56dd14610291578063d1660f99146102a4578063dbf51325146102b7578063e985e9c5146102ca578063ffdd5cf1146102dd57600080fd5b806370a082311461024757806395d89b411461025a57806398bdf6f514610262578063a22cb4651461026b578063b88d4fde1461027e57600080fd5b806315c628b6116100f457806315c628b6146101da57806323b872dd146101fb57806340d097c31461020e57806342842e0e146102215780636352211e1461023457600080fd5b806301ffc9a71461013157806306fdde0314610159578063081812fc1461016e578063095ea7b314610199578063150b7a02146101ae575b600080fd5b61014461013f366004611533565b610306565b60405190151581526020015b60405180910390f35b610161610358565b60405161015091906115a0565b61018161017c3660046115b3565b6103ea565b6040516001600160a01b039091168152602001610150565b6101ac6101a73660046115e8565b610411565b005b6101c16101bc366004611628565b61052b565b6040516001600160e01b03199091168152602001610150565b6101ed6101e83660046115e8565b61053c565b604051908152602001610150565b6101ac610209366004611704565b61056d565b6101ac61021c366004611740565b61059e565b6101ac61022f366004611704565b6105f7565b6101816102423660046115b3565b610612565b6101ed610255366004611740565b610672565b6101616106f8565b6101ed60065481565b6101ac61027936600461175b565b610707565b6101ac61028c366004611628565b610716565b61016161029f3660046115b3565b61074e565b6101ac6102b2366004611704565b6107c2565b6101ac6102c53660046115b3565b6109fc565b6101446102d8366004611797565b610c08565b6101ed6102eb366004611740565b6001600160a01b031660009081526007602052604090205490565b60006001600160e01b031982166380ac58cd60e01b148061033757506001600160e01b03198216635b5e139f60e01b145b8061035257506301ffc9a760e01b6001600160e01b03198316145b92915050565b606060008054610367906117ca565b80601f0160208091040260200160405190810160405280929190818152602001828054610393906117ca565b80156103e05780601f106103b5576101008083540402835291602001916103e0565b820191906000526020600020905b8154815290600101906020018083116103c357829003601f168201915b5050505050905090565b60006103f582610c36565b506000908152600460205260409020546001600160a01b031690565b600061041c82610612565b9050806001600160a01b0316836001600160a01b03160361048e5760405162461bcd60e51b815260206004820152602160248201527f4552433732313a20617070726f76616c20746f2063757272656e74206f776e656044820152603960f91b60648201526084015b60405180910390fd5b336001600160a01b03821614806104aa57506104aa8133610c08565b61051c5760405162461bcd60e51b815260206004820152603d60248201527f4552433732313a20617070726f76652063616c6c6572206973206e6f7420746f60448201527f6b656e206f776e6572206f7220617070726f76656420666f7220616c6c0000006064820152608401610485565b6105268383610c98565b505050565b630a85bd0160e11b5b949350505050565b6007602052816000526040600020818154811061055857600080fd5b90600052602060002001600091509150505481565b6105773382610d06565b6105935760405162461bcd60e51b815260040161048590611804565b610526838383610d64565b6006805490819060006105b083611867565b91905055506105bf8282610ec8565b6105cb82336001610ee2565b6001600160a01b0390911660009081526007602090815260408220805460018101825590835291200155565b61052683838360405180602001604052806000815250610716565b6000818152600260205260408120546001600160a01b0316806103525760405162461bcd60e51b8152602060048201526018602482015277115490cdcc8c4e881a5b9d985b1a59081d1bdad95b88125160421b6044820152606401610485565b60006001600160a01b0382166106dc5760405162461bcd60e51b815260206004820152602960248201527f4552433732313a2061646472657373207a65726f206973206e6f7420612076616044820152683634b21037bbb732b960b91b6064820152608401610485565b506001600160a01b031660009081526003602052604090205490565b606060018054610367906117ca565b610712338383610ee2565b5050565b6107203383610d06565b61073c5760405162461bcd60e51b815260040161048590611804565b61074884848484610fb0565b50505050565b606061075982610c36565b600061077060408051602081019091526000815290565b9050600081511161079057604051806020016040528060008152506107bb565b8061079a84610fe3565b6040516020016107ab929190611880565b6040516020818303038152906040525b9392505050565b60006107cd84610672565b9050818110156107dc57600080fd5b6001600160a01b0384166000908152600760205260409020548114610803576108036118af565b60005b828110156108bd57610859858560076000896001600160a01b03166001600160a01b031681526020019081526020016000208481548110610849576108496118c5565b9060005260206000200154610d64565b6001600160a01b038085166000908152600760205260408082209288168252902080548390811061088c5761088c6118c5565b60009182526020808320909101548354600181018555938352912090910155806108b581611867565b915050610806565b60006108c984846118db565b905060008167ffffffffffffffff8111156108e6576108e6611612565b60405190808252806020026020018201604052801561090f578160200160208202803683370190505b50905060005b8281101561098f576001600160a01b0388166000908152600760205260409020805485908110610947576109476118c5565b9060005260206000200154828281518110610964576109646118c5565b60209081029190910101528361097981611867565b945050808061098790611867565b915050610915565b508161099b86856118db565b146109a8576109a86118af565b6001600160a01b03871660009081526007602052604081206109c99161149f565b6001600160a01b038716600090815260076020908152604090912082516109f2928401906114bd565b5050505050505050565b80610a073382610d06565b610a615760405162461bcd60e51b815260206004820152602560248201527f63616c6c6572206973206e6f7420746f6b656e206f776e6572206f72206170706044820152641c9bdd995960da1b6064820152608401610485565b6000610a6c83610612565b6001600160a01b038116600090815260076020908152604080832080548251818502810185019093528083529495509293909291830182828015610acf57602002820191906000526020600020905b815481526020019060010190808311610abb575b50505050509050600060018251610ae691906118db565b67ffffffffffffffff811115610afe57610afe611612565b604051908082528060200260200182016040528015610b27578160200160208202803683370190505b5090506000805b8351811015610bae5786848281518110610b4a57610b4a6118c5565b602002602001015114610b9c57838181518110610b6957610b696118c5565b6020026020010151838381518110610b8357610b836118c5565b602090810291909101015281610b9881611867565b9250505b80610ba681611867565b915050610b2e565b508251610bbc8260016118ee565b14610bc957610bc96118af565b6001600160a01b03841660009081526007602090815260409091208351610bf2928501906114bd565b5060609250610c0086611076565b505050505050565b6001600160a01b03918216600090815260056020908152604080832093909416825291909152205460ff1690565b6000818152600260205260409020546001600160a01b0316610c955760405162461bcd60e51b8152602060048201526018602482015277115490cdcc8c4e881a5b9d985b1a59081d1bdad95b88125160421b6044820152606401610485565b50565b600081815260046020526040902080546001600160a01b0319166001600160a01b0384169081179091558190610ccd82610612565b6001600160a01b03167f8c5be1e5ebec7d5bd14f71427d1e84f3dd0314c0f7b2291e5b200ac8c7c3b92560405160405180910390a45050565b600080610d1283610612565b9050806001600160a01b0316846001600160a01b03161480610d395750610d398185610c08565b806105345750836001600160a01b0316610d52846103ea565b6001600160a01b031614949350505050565b826001600160a01b0316610d7782610612565b6001600160a01b031614610d9d5760405162461bcd60e51b815260040161048590611901565b6001600160a01b038216610dff5760405162461bcd60e51b8152602060048201526024808201527f4552433732313a207472616e7366657220746f20746865207a65726f206164646044820152637265737360e01b6064820152608401610485565b826001600160a01b0316610e1282610612565b6001600160a01b031614610e385760405162461bcd60e51b815260040161048590611901565b600081815260046020908152604080832080546001600160a01b03199081169091556001600160a01b0387811680865260038552838620805460001901905590871680865283862080546001019055868652600290945282852080549092168417909155905184937fddf252ad1be2c89b69c2b068fc378daa952ba7f163c4a11628f55a4df523b3ef91a4505050565b61071282826040518060200160405280600081525061110b565b816001600160a01b0316836001600160a01b031603610f435760405162461bcd60e51b815260206004820152601960248201527f4552433732313a20617070726f766520746f2063616c6c6572000000000000006044820152606401610485565b6001600160a01b03838116600081815260056020908152604080832094871680845294825291829020805460ff191686151590811790915591519182527f17307eab39ab6107e8899845ad3d59bd9653f200f220920489ca2b5937696c31910160405180910390a3505050565b610fbb848484610d64565b610fc78484848461113e565b6107485760405162461bcd60e51b815260040161048590611946565b60606000610ff08361123c565b600101905060008167ffffffffffffffff81111561101057611010611612565b6040519080825280601f01601f19166020018201604052801561103a576020820181803683370190505b5090508181016020015b600019016f181899199a1a9b1b9c1cb0b131b232b360811b600a86061a8153600a850494508461104457509392505050565b600061108182610612565b905061108c82610612565b600083815260046020908152604080832080546001600160a01b03199081169091556001600160a01b0385168085526003845282852080546000190190558785526002909352818420805490911690555192935084927fddf252ad1be2c89b69c2b068fc378daa952ba7f163c4a11628f55a4df523b3ef908390a45050565b6111158383611314565b611122600084848461113e565b6105265760405162461bcd60e51b815260040161048590611946565b60006001600160a01b0384163b1561123457604051630a85bd0160e11b81526001600160a01b0385169063150b7a0290611182903390899088908890600401611998565b6020604051808303816000875af19250505080156111bd575060408051601f3d908101601f191682019092526111ba918101906119d5565b60015b61121a573d8080156111eb576040519150601f19603f3d011682016040523d82523d6000602084013e6111f0565b606091505b5080516000036112125760405162461bcd60e51b815260040161048590611946565b805181602001fd5b6001600160e01b031916630a85bd0160e11b149050610534565b506001610534565b60008072184f03e93ff9f4daa797ed6e38ed64bf6a1f0160401b831061127b5772184f03e93ff9f4daa797ed6e38ed64bf6a1f0160401b830492506040015b6d04ee2d6d415b85acef810000000083106112a7576d04ee2d6d415b85acef8100000000830492506020015b662386f26fc1000083106112c557662386f26fc10000830492506010015b6305f5e10083106112dd576305f5e100830492506008015b61271083106112f157612710830492506004015b60648310611303576064830492506002015b600a83106103525760010192915050565b6001600160a01b03821661136a5760405162461bcd60e51b815260206004820181905260248201527f4552433732313a206d696e7420746f20746865207a65726f20616464726573736044820152606401610485565b6000818152600260205260409020546001600160a01b0316156113cf5760405162461bcd60e51b815260206004820152601c60248201527f4552433732313a20746f6b656e20616c7265616479206d696e746564000000006044820152606401610485565b6000818152600260205260409020546001600160a01b0316156114345760405162461bcd60e51b815260206004820152601c60248201527f4552433732313a20746f6b656e20616c7265616479206d696e746564000000006044820152606401610485565b6001600160a01b038216600081815260036020908152604080832080546001019055848352600290915280822080546001600160a01b0319168417905551839291907fddf252ad1be2c89b69c2b068fc378daa952ba7f163c4a11628f55a4df523b3ef908290a45050565b5080546000825590600052602060002090810190610c959190611508565b8280548282559060005260206000209081019282156114f8579160200282015b828111156114f85782518255916020019190600101906114dd565b50611504929150611508565b5090565b5b808211156115045760008155600101611509565b6001600160e01b031981168114610c9557600080fd5b60006020828403121561154557600080fd5b81356107bb8161151d565b60005b8381101561156b578181015183820152602001611553565b50506000910152565b6000815180845261158c816020860160208601611550565b601f01601f19169290920160200192915050565b6020815260006107bb6020830184611574565b6000602082840312156115c557600080fd5b5035919050565b80356001600160a01b03811681146115e357600080fd5b919050565b600080604083850312156115fb57600080fd5b611604836115cc565b946020939093013593505050565b634e487b7160e01b600052604160045260246000fd5b6000806000806080858703121561163e57600080fd5b611647856115cc565b9350611655602086016115cc565b925060408501359150606085013567ffffffffffffffff8082111561167957600080fd5b818701915087601f83011261168d57600080fd5b81358181111561169f5761169f611612565b604051601f8201601f19908116603f011681019083821181831017156116c7576116c7611612565b816040528281528a60208487010111156116e057600080fd5b82602086016020830137600060208483010152809550505050505092959194509250565b60008060006060848603121561171957600080fd5b611722846115cc565b9250611730602085016115cc565b9150604084013590509250925092565b60006020828403121561175257600080fd5b6107bb826115cc565b6000806040838503121561176e57600080fd5b611777836115cc565b91506020830135801515811461178c57600080fd5b809150509250929050565b600080604083850312156117aa57600080fd5b6117b3836115cc565b91506117c1602084016115cc565b90509250929050565b600181811c908216806117de57607f821691505b6020821081036117fe57634e487b7160e01b600052602260045260246000fd5b50919050565b6020808252602d908201527f4552433732313a2063616c6c6572206973206e6f7420746f6b656e206f776e6560408201526c1c881bdc88185c1c1c9bdd9959609a1b606082015260800190565b634e487b7160e01b600052601160045260246000fd5b60006001820161187957611879611851565b5060010190565b60008351611892818460208801611550565b8351908301906118a6818360208801611550565b01949350505050565b634e487b7160e01b600052600160045260246000fd5b634e487b7160e01b600052603260045260246000fd5b8181038181111561035257610352611851565b8082018082111561035257610352611851565b60208082526025908201527f4552433732313a207472616e736665722066726f6d20696e636f72726563742060408201526437bbb732b960d91b606082015260800190565b60208082526032908201527f4552433732313a207472616e7366657220746f206e6f6e20455243373231526560408201527131b2b4bb32b91034b6b83632b6b2b73a32b960711b606082015260800190565b6001600160a01b03858116825284166020820152604081018390526080606082018190526000906119cb90830184611574565b9695505050505050565b6000602082840312156119e757600080fd5b81516107bb8161151d56fea264697066735822122043a011d43da3fc2824adf7b79830ca07850a2f5a726b21704ca355c6eae87bc664736f6c63430008130033",
  "immutableReferences": {},
  "source": "// SPDX-License-Identifier: MIT\npragma solidity ^0.8.9;\n\nimport \"./RewardPoint.sol\";\ncontract QAForum {\n\n    // Define the structure for questions\n    struct Question {\n        uint id;\n        string title;\n        string text;\n        address questioner;\n        uint reward;\n        uint [] answerIds;\n        bool resolved;\n    }\n    \n    // Define the structure for answers\n    struct Answer {\n        uint id;\n        string text;\n        address answerer;\n        bool accepted;\n    }\n    \n    // Define the structure for users\n    struct User {\n        uint id;\n        string username;\n        uint balance;\n        bool banned;\n    }\n    \n    // Define variables\n    uint questionCounter = 1;\n    uint userCounter = 1;\n    uint answerCounter = 1;\n    mapping(uint => Question) public questions;\n    mapping(address => User) public users;\n    mapping(uint => Answer) public answers;\n    uint public constant TOKEN_PRICE = 1e18 wei;\n    RewardPoint public  rp;\n    address public owner;\n    \n    // Define events\n    event UserRegistered(uint indexed id, string username, uint balance);\n    event QuestionAsked(uint indexed questionId, string text, address questioner);\n    event AnswerGiven(uint indexed answerId, string text, address answerer);\n    event QuestionResolved(uint indexed questionId);\n    event AnswerAccepted(uint indexed answerId, uint indexed questionId);\n    event UserBanned(address user);\n    event UserUnbanned(address user);\n    event TokensPurchased(address indexed user, uint amount, uint updatedBalance);\n    event BalanceUpdate(address indexed user, uint updatedBalance);\n    \n    \n    // Functions for users\n    \n    constructor() {\n        rp = new RewardPoint();\n        owner = msg.sender;\n    }\n\n    function isUser() public view returns (bool) {\n        if(users[msg.sender].id == 0) {\n            return false;\n        } \n        return true;\n    }\n    function registerUser(string memory username) public {\n        require(bytes(username).length > 0, \"Username should not be empty.\");\n        require(users[msg.sender].id == 0, \"User already registered.\");\n        \n        users[msg.sender] = User(userCounter, username, 0, false);\n        userCounter++;\n        emit UserRegistered(userCounter, username, 0);\n    }\n    \n    function purchaseTokens(uint tokenCount) public payable {\n        require(users[msg.sender].id != 0);\n        require(msg.value == tokenCount*TOKEN_PRICE);\n        for(uint i = 0; i<tokenCount; i++){\n            rp.safeMint(msg.sender);\n        }\n        users[msg.sender].balance += tokenCount;\n        //emit TokensPurchased(msg.sender, tokenCount, users[msg.sender].balance);\n        emit BalanceUpdate(msg.sender, users[msg.sender].balance);\n    }\n    \n    \n    // Functions for questions\n    \n    function askQuestion(string calldata title, string calldata text, uint rewardPoints) public returns(uint){\n        require(rewardPoints <= users[msg.sender].balance, \"You don't have enough tokens.\");\n        rp.safeTransfer(msg.sender, address(this), rewardPoints);\n        users[msg.sender].balance -= rewardPoints;\n        uint [] memory answerIds;\n        questions[questionCounter] = Question(questionCounter, title, text, msg.sender, rewardPoints, answerIds, false);\n        //emit QuestionAsked(questionCounter, text, msg.sender);\n        questionCounter++;\n        emit BalanceUpdate(msg.sender, users[msg.sender].balance);\n        return questionCounter -1;\n    }\n    \n    function resolveQuestion(uint questionId, uint anwserId) public {\n        require(questions[questionId].questioner == msg.sender, \"You are not the questioner.\");\n        require(!questions[questionId].resolved, \"Question is already resolved.\");\n        uint rewardPoints = questions[questionId].reward;\n\n        Answer memory ans = answers[anwserId];\n        address answerer = ans.answerer;\n        ans.accepted = true;\n        questions[questionId].resolved = true;\n\n        rp.safeTransfer(address(this), answerer, rewardPoints);\n        users[answerer].balance += rewardPoints;\n\n        //emit QuestionResolved(questionId);\n        emit BalanceUpdate(answerer, users[answerer].balance);\n    }\n\n    function postAnswer(uint questionId, string memory text) public {\n        require(questions[questionId].resolved == false, \"question already resolved\");\n        require(questions[questionId].questioner != msg.sender, \"can't answer your own question\");\n        answers[answerCounter] = Answer(answerCounter, text, msg.sender, false);\n        questions[questionId].answerIds.push(answerCounter);\n        answerCounter++;\n        \n    }\n    \n}",
  "sourcePath": "/Users/abhishekpaharia/software development/node_project/blockchain_project/qa-forum/contracts/QAForum.sol",
  "compiler": {
    "name": "solc",
    "version": "0.8.19+commit.7dd6d404.Emscripten.clang"
  },
  "schemaVersion": "3.4.13",
  "updatedAt": "2023-04-28T05:51:13.915Z",
  "devdoc": {
    "kind": "dev",
    "methods": {},
    "version": 1
  },
  "userdoc": {
    "kind": "user",
    "methods": {},
    "version": 1
  }
}