{
  "contractName": "RewardPoint",
  "abi": [
    {
      "inputs": [],
      "stateMutability": "nonpayable",
      "type": "constructor"
    },
    {
      "anonymous": false,
      "inputs": [
        {
          "indexed": true,
          "internalType": "address",
          "name": "owner",
          "type": "address"
        },
        {
          "indexed": true,
          "internalType": "address",
          "name": "approved",
          "type": "address"
        },
        {
          "indexed": true,
          "internalType": "uint256",
          "name": "tokenId",
          "type": "uint256"
        }
      ],
      "name": "Approval",
      "type": "event"
    },
    {
      "anonymous": false,
      "inputs": [
        {
          "indexed": true,
          "internalType": "address",
          "name": "owner",
          "type": "address"
        },
        {
          "indexed": true,
          "internalType": "address",
          "name": "operator",
          "type": "address"
        },
        {
          "indexed": false,
          "internalType": "bool",
          "name": "approved",
          "type": "bool"
        }
      ],
      "name": "ApprovalForAll",
      "type": "event"
    },
    {
      "anonymous": false,
      "inputs": [
        {
          "indexed": true,
          "internalType": "address",
          "name": "from",
          "type": "address"
        },
        {
          "indexed": true,
          "internalType": "address",
          "name": "to",
          "type": "address"
        },
        {
          "indexed": true,
          "internalType": "uint256",
          "name": "tokenId",
          "type": "uint256"
        }
      ],
      "name": "Transfer",
      "type": "event"
    },
    {
      "inputs": [
        {
          "internalType": "address",
          "name": "to",
          "type": "address"
        },
        {
          "internalType": "uint256",
          "name": "tokenId",
          "type": "uint256"
        }
      ],
      "name": "approve",
      "outputs": [],
      "stateMutability": "nonpayable",
      "type": "function"
    },
    {
      "inputs": [
        {
          "internalType": "address",
          "name": "owner",
          "type": "address"
        }
      ],
      "name": "balanceOf",
      "outputs": [
        {
          "internalType": "uint256",
          "name": "",
          "type": "uint256"
        }
      ],
      "stateMutability": "view",
      "type": "function",
      "constant": true
    },
    {
      "inputs": [
        {
          "internalType": "uint256",
          "name": "tokenId",
          "type": "uint256"
        }
      ],
      "name": "getApproved",
      "outputs": [
        {
          "internalType": "address",
          "name": "",
          "type": "address"
        }
      ],
      "stateMutability": "view",
      "type": "function",
      "constant": true
    },
    {
      "inputs": [
        {
          "internalType": "address",
          "name": "owner",
          "type": "address"
        },
        {
          "internalType": "address",
          "name": "operator",
          "type": "address"
        }
      ],
      "name": "isApprovedForAll",
      "outputs": [
        {
          "internalType": "bool",
          "name": "",
          "type": "bool"
        }
      ],
      "stateMutability": "view",
      "type": "function",
      "constant": true
    },
    {
      "inputs": [],
      "name": "name",
      "outputs": [
        {
          "internalType": "string",
          "name": "",
          "type": "string"
        }
      ],
      "stateMutability": "view",
      "type": "function",
      "constant": true
    },
    {
      "inputs": [
        {
          "internalType": "uint256",
          "name": "tokenId",
          "type": "uint256"
        }
      ],
      "name": "ownerOf",
      "outputs": [
        {
          "internalType": "address",
          "name": "",
          "type": "address"
        }
      ],
      "stateMutability": "view",
      "type": "function",
      "constant": true
    },
    {
      "inputs": [
        {
          "internalType": "address",
          "name": "from",
          "type": "address"
        },
        {
          "internalType": "address",
          "name": "to",
          "type": "address"
        },
        {
          "internalType": "uint256",
          "name": "tokenId",
          "type": "uint256"
        }
      ],
      "name": "safeTransferFrom",
      "outputs": [],
      "stateMutability": "nonpayable",
      "type": "function"
    },
    {
      "inputs": [
        {
          "internalType": "address",
          "name": "from",
          "type": "address"
        },
        {
          "internalType": "address",
          "name": "to",
          "type": "address"
        },
        {
          "internalType": "uint256",
          "name": "tokenId",
          "type": "uint256"
        },
        {
          "internalType": "bytes",
          "name": "data",
          "type": "bytes"
        }
      ],
      "name": "safeTransferFrom",
      "outputs": [],
      "stateMutability": "nonpayable",
      "type": "function"
    },
    {
      "inputs": [
        {
          "internalType": "address",
          "name": "operator",
          "type": "address"
        },
        {
          "internalType": "bool",
          "name": "approved",
          "type": "bool"
        }
      ],
      "name": "setApprovalForAll",
      "outputs": [],
      "stateMutability": "nonpayable",
      "type": "function"
    },
    {
      "inputs": [
        {
          "internalType": "bytes4",
          "name": "interfaceId",
          "type": "bytes4"
        }
      ],
      "name": "supportsInterface",
      "outputs": [
        {
          "internalType": "bool",
          "name": "",
          "type": "bool"
        }
      ],
      "stateMutability": "view",
      "type": "function",
      "constant": true
    },
    {
      "inputs": [],
      "name": "symbol",
      "outputs": [
        {
          "internalType": "string",
          "name": "",
          "type": "string"
        }
      ],
      "stateMutability": "view",
      "type": "function",
      "constant": true
    },
    {
      "inputs": [
        {
          "internalType": "uint256",
          "name": "tokenId",
          "type": "uint256"
        }
      ],
      "name": "tokenURI",
      "outputs": [
        {
          "internalType": "string",
          "name": "",
          "type": "string"
        }
      ],
      "stateMutability": "view",
      "type": "function",
      "constant": true
    },
    {
      "inputs": [
        {
          "internalType": "address",
          "name": "from",
          "type": "address"
        },
        {
          "internalType": "address",
          "name": "to",
          "type": "address"
        },
        {
          "internalType": "uint256",
          "name": "tokenId",
          "type": "uint256"
        }
      ],
      "name": "transferFrom",
      "outputs": [],
      "stateMutability": "nonpayable",
      "type": "function"
    },
    {
      "inputs": [
        {
          "internalType": "address",
          "name": "to",
          "type": "address"
        }
      ],
      "name": "safeMint",
      "outputs": [],
      "stateMutability": "nonpayable",
      "type": "function"
    },
    {
      "inputs": [
        {
          "internalType": "uint256",
          "name": "tokenId",
          "type": "uint256"
        }
      ],
      "name": "safeBurn",
      "outputs": [],
      "stateMutability": "nonpayable",
      "type": "function"
    },
    {
      "inputs": [
        {
          "internalType": "address",
          "name": "from",
          "type": "address"
        },
        {
          "internalType": "address",
          "name": "to",
          "type": "address"
        },
        {
          "internalType": "uint256",
          "name": "tokenCount",
          "type": "uint256"
        }
      ],
      "name": "safeTransfer",
      "outputs": [],
      "stateMutability": "nonpayable",
      "type": "function"
    },
    {
      "inputs": [
        {
          "internalType": "address",
          "name": "add",
          "type": "address"
        }
      ],
      "name": "getInfo",
      "outputs": [
        {
          "internalType": "uint256",
          "name": "",
          "type": "uint256"
        }
      ],
      "stateMutability": "view",
      "type": "function",
      "constant": true
    }
  ],
  "bytecode": "0x608060405260016006553480156200001657600080fd5b506040518060400160405280600b81526020016a14995dd85c99141bda5b9d60aa1b81525060405180604001604052806002815260200161052560f41b815250816000908162000067919062000124565b50600162000076828262000124565b505050620001f0565b634e487b7160e01b600052604160045260246000fd5b600181811c90821680620000aa57607f821691505b602082108103620000cb57634e487b7160e01b600052602260045260246000fd5b50919050565b601f8211156200011f57600081815260208120601f850160051c81016020861015620000fa5750805b601f850160051c820191505b818110156200011b5782815560010162000106565b5050505b505050565b81516001600160401b038111156200014057620001406200007f565b620001588162000151845462000095565b84620000d1565b602080601f831160018114620001905760008415620001775750858301515b600019600386901b1c1916600185901b1785556200011b565b600085815260208120601f198616915b82811015620001c157888601518255948401946001909101908401620001a0565b5085821015620001e05787850151600019600388901b60f8161c191681555b5050505050600190811b01905550565b61197580620002006000396000f3fe608060405234801561001057600080fd5b506004361061010b5760003560e01c806370a08231116100a2578063c87b56dd11610071578063c87b56dd14610228578063d1660f991461023b578063dbf513251461024e578063e985e9c514610261578063ffdd5cf11461027457600080fd5b806370a08231146101d957806395d89b41146101fa578063a22cb46514610202578063b88d4fde1461021557600080fd5b806323b872dd116100de57806323b872dd1461018d57806340d097c3146101a057806342842e0e146101b35780636352211e146101c657600080fd5b806301ffc9a71461011057806306fdde0314610138578063081812fc1461014d578063095ea7b314610178575b600080fd5b61012361011e366004611480565b61029d565b60405190151581526020015b60405180910390f35b6101406102ef565b60405161012f91906114ed565b61016061015b366004611500565b610381565b6040516001600160a01b03909116815260200161012f565b61018b610186366004611535565b6103a8565b005b61018b61019b36600461155f565b6104c2565b61018b6101ae36600461159b565b6104f3565b61018b6101c136600461155f565b610540565b6101606101d4366004611500565b61055b565b6101ec6101e736600461159b565b6105bb565b60405190815260200161012f565b610140610641565b61018b6102103660046115b6565b610650565b61018b610223366004611608565b61065f565b610140610236366004611500565b610697565b61018b61024936600461155f565b61070b565b61018b61025c366004611500565b610945565b61012361026f3660046116e4565b610b51565b6101ec61028236600461159b565b6001600160a01b031660009081526007602052604090205490565b60006001600160e01b031982166380ac58cd60e01b14806102ce57506001600160e01b03198216635b5e139f60e01b145b806102e957506301ffc9a760e01b6001600160e01b03198316145b92915050565b6060600080546102fe90611717565b80601f016020809104026020016040519081016040528092919081815260200182805461032a90611717565b80156103775780601f1061034c57610100808354040283529160200191610377565b820191906000526020600020905b81548152906001019060200180831161035a57829003601f168201915b5050505050905090565b600061038c82610b7f565b506000908152600460205260409020546001600160a01b031690565b60006103b38261055b565b9050806001600160a01b0316836001600160a01b0316036104255760405162461bcd60e51b815260206004820152602160248201527f4552433732313a20617070726f76616c20746f2063757272656e74206f776e656044820152603960f91b60648201526084015b60405180910390fd5b336001600160a01b038216148061044157506104418133610b51565b6104b35760405162461bcd60e51b815260206004820152603d60248201527f4552433732313a20617070726f76652063616c6c6572206973206e6f7420746f60448201527f6b656e206f776e6572206f7220617070726f76656420666f7220616c6c000000606482015260840161041c565b6104bd8383610be1565b505050565b6104cc3382610c4f565b6104e85760405162461bcd60e51b815260040161041c90611751565b6104bd838383610cae565b600680549081906000610505836117b4565b91905055506105148282610e12565b6001600160a01b0390911660009081526007602090815260408220805460018101825590835291200155565b6104bd8383836040518060200160405280600081525061065f565b6000818152600260205260408120546001600160a01b0316806102e95760405162461bcd60e51b8152602060048201526018602482015277115490cdcc8c4e881a5b9d985b1a59081d1bdad95b88125160421b604482015260640161041c565b60006001600160a01b0382166106255760405162461bcd60e51b815260206004820152602960248201527f4552433732313a2061646472657373207a65726f206973206e6f7420612076616044820152683634b21037bbb732b960b91b606482015260840161041c565b506001600160a01b031660009081526003602052604090205490565b6060600180546102fe90611717565b61065b338383610e2c565b5050565b6106693383610c4f565b6106855760405162461bcd60e51b815260040161041c90611751565b61069184848484610efa565b50505050565b60606106a282610b7f565b60006106b960408051602081019091526000815290565b905060008151116106d95760405180602001604052806000815250610704565b806106e384610f2d565b6040516020016106f49291906117cd565b6040516020818303038152906040525b9392505050565b6000610716846105bb565b90508181101561072557600080fd5b6001600160a01b038416600090815260076020526040902054811461074c5761074c6117fc565b60005b82811015610806576107a2858560076000896001600160a01b03166001600160a01b03168152602001908152602001600020848154811061079257610792611812565b9060005260206000200154610540565b6001600160a01b03808516600090815260076020526040808220928816825290208054839081106107d5576107d5611812565b60009182526020808320909101548354600181018555938352912090910155806107fe816117b4565b91505061074f565b60006108128484611828565b905060008167ffffffffffffffff81111561082f5761082f6115f2565b604051908082528060200260200182016040528015610858578160200160208202803683370190505b50905060005b828110156108d8576001600160a01b038816600090815260076020526040902080548590811061089057610890611812565b90600052602060002001548282815181106108ad576108ad611812565b6020908102919091010152836108c2816117b4565b94505080806108d0906117b4565b91505061085e565b50816108e48685611828565b146108f1576108f16117fc565b6001600160a01b0387166000908152600760205260408120610912916113ec565b6001600160a01b0387166000908152600760209081526040909120825161093b9284019061140a565b5050505050505050565b806109503382610c4f565b6109aa5760405162461bcd60e51b815260206004820152602560248201527f63616c6c6572206973206e6f7420746f6b656e206f776e6572206f72206170706044820152641c9bdd995960da1b606482015260840161041c565b60006109b58361055b565b6001600160a01b038116600090815260076020908152604080832080548251818502810185019093528083529495509293909291830182828015610a1857602002820191906000526020600020905b815481526020019060010190808311610a04575b50505050509050600060018251610a2f9190611828565b67ffffffffffffffff811115610a4757610a476115f2565b604051908082528060200260200182016040528015610a70578160200160208202803683370190505b5090506000805b8351811015610af75786848281518110610a9357610a93611812565b602002602001015114610ae557838181518110610ab257610ab2611812565b6020026020010151838381518110610acc57610acc611812565b602090810291909101015281610ae1816117b4565b9250505b80610aef816117b4565b915050610a77565b508251610b0582600161183b565b14610b1257610b126117fc565b6001600160a01b03841660009081526007602090815260409091208351610b3b9285019061140a565b5060609250610b4986610fc0565b505050505050565b6001600160a01b03918216600090815260056020908152604080832093909416825291909152205460ff1690565b6000818152600260205260409020546001600160a01b0316610bde5760405162461bcd60e51b8152602060048201526018602482015277115490cdcc8c4e881a5b9d985b1a59081d1bdad95b88125160421b604482015260640161041c565b50565b600081815260046020526040902080546001600160a01b0319166001600160a01b0384169081179091558190610c168261055b565b6001600160a01b03167f8c5be1e5ebec7d5bd14f71427d1e84f3dd0314c0f7b2291e5b200ac8c7c3b92560405160405180910390a45050565b600080610c5b8361055b565b9050806001600160a01b0316846001600160a01b03161480610c825750610c828185610b51565b80610ca65750836001600160a01b0316610c9b84610381565b6001600160a01b0316145b949350505050565b826001600160a01b0316610cc18261055b565b6001600160a01b031614610ce75760405162461bcd60e51b815260040161041c9061184e565b6001600160a01b038216610d495760405162461bcd60e51b8152602060048201526024808201527f4552433732313a207472616e7366657220746f20746865207a65726f206164646044820152637265737360e01b606482015260840161041c565b826001600160a01b0316610d5c8261055b565b6001600160a01b031614610d825760405162461bcd60e51b815260040161041c9061184e565b600081815260046020908152604080832080546001600160a01b03199081169091556001600160a01b0387811680865260038552838620805460001901905590871680865283862080546001019055868652600290945282852080549092168417909155905184937fddf252ad1be2c89b69c2b068fc378daa952ba7f163c4a11628f55a4df523b3ef91a4505050565b61065b828260405180602001604052806000815250611055565b816001600160a01b0316836001600160a01b031603610e8d5760405162461bcd60e51b815260206004820152601960248201527f4552433732313a20617070726f766520746f2063616c6c657200000000000000604482015260640161041c565b6001600160a01b03838116600081815260056020908152604080832094871680845294825291829020805460ff191686151590811790915591519182527f17307eab39ab6107e8899845ad3d59bd9653f200f220920489ca2b5937696c31910160405180910390a3505050565b610f05848484610cae565b610f1184848484611088565b6106915760405162461bcd60e51b815260040161041c90611893565b60606000610f3a83611189565b600101905060008167ffffffffffffffff811115610f5a57610f5a6115f2565b6040519080825280601f01601f191660200182016040528015610f84576020820181803683370190505b5090508181016020015b600019016f181899199a1a9b1b9c1cb0b131b232b360811b600a86061a8153600a8504945084610f8e57509392505050565b6000610fcb8261055b565b9050610fd68261055b565b600083815260046020908152604080832080546001600160a01b03199081169091556001600160a01b0385168085526003845282852080546000190190558785526002909352818420805490911690555192935084927fddf252ad1be2c89b69c2b068fc378daa952ba7f163c4a11628f55a4df523b3ef908390a45050565b61105f8383611261565b61106c6000848484611088565b6104bd5760405162461bcd60e51b815260040161041c90611893565b60006001600160a01b0384163b1561117e57604051630a85bd0160e11b81526001600160a01b0385169063150b7a02906110cc9033908990889088906004016118e5565b6020604051808303816000875af1925050508015611107575060408051601f3d908101601f1916820190925261110491810190611922565b60015b611164573d808015611135576040519150601f19603f3d011682016040523d82523d6000602084013e61113a565b606091505b50805160000361115c5760405162461bcd60e51b815260040161041c90611893565b805181602001fd5b6001600160e01b031916630a85bd0160e11b149050610ca6565b506001949350505050565b60008072184f03e93ff9f4daa797ed6e38ed64bf6a1f0160401b83106111c85772184f03e93ff9f4daa797ed6e38ed64bf6a1f0160401b830492506040015b6d04ee2d6d415b85acef810000000083106111f4576d04ee2d6d415b85acef8100000000830492506020015b662386f26fc10000831061121257662386f26fc10000830492506010015b6305f5e100831061122a576305f5e100830492506008015b612710831061123e57612710830492506004015b60648310611250576064830492506002015b600a83106102e95760010192915050565b6001600160a01b0382166112b75760405162461bcd60e51b815260206004820181905260248201527f4552433732313a206d696e7420746f20746865207a65726f2061646472657373604482015260640161041c565b6000818152600260205260409020546001600160a01b03161561131c5760405162461bcd60e51b815260206004820152601c60248201527f4552433732313a20746f6b656e20616c7265616479206d696e74656400000000604482015260640161041c565b6000818152600260205260409020546001600160a01b0316156113815760405162461bcd60e51b815260206004820152601c60248201527f4552433732313a20746f6b656e20616c7265616479206d696e74656400000000604482015260640161041c565b6001600160a01b038216600081815260036020908152604080832080546001019055848352600290915280822080546001600160a01b0319168417905551839291907fddf252ad1be2c89b69c2b068fc378daa952ba7f163c4a11628f55a4df523b3ef908290a45050565b5080546000825590600052602060002090810190610bde9190611455565b828054828255906000526020600020908101928215611445579160200282015b8281111561144557825182559160200191906001019061142a565b50611451929150611455565b5090565b5b808211156114515760008155600101611456565b6001600160e01b031981168114610bde57600080fd5b60006020828403121561149257600080fd5b81356107048161146a565b60005b838110156114b85781810151838201526020016114a0565b50506000910152565b600081518084526114d981602086016020860161149d565b601f01601f19169290920160200192915050565b60208152600061070460208301846114c1565b60006020828403121561151257600080fd5b5035919050565b80356001600160a01b038116811461153057600080fd5b919050565b6000806040838503121561154857600080fd5b61155183611519565b946020939093013593505050565b60008060006060848603121561157457600080fd5b61157d84611519565b925061158b60208501611519565b9150604084013590509250925092565b6000602082840312156115ad57600080fd5b61070482611519565b600080604083850312156115c957600080fd5b6115d283611519565b9150602083013580151581146115e757600080fd5b809150509250929050565b634e487b7160e01b600052604160045260246000fd5b6000806000806080858703121561161e57600080fd5b61162785611519565b935061163560208601611519565b925060408501359150606085013567ffffffffffffffff8082111561165957600080fd5b818701915087601f83011261166d57600080fd5b81358181111561167f5761167f6115f2565b604051601f8201601f19908116603f011681019083821181831017156116a7576116a76115f2565b816040528281528a60208487010111156116c057600080fd5b82602086016020830137600060208483010152809550505050505092959194509250565b600080604083850312156116f757600080fd5b61170083611519565b915061170e60208401611519565b90509250929050565b600181811c9082168061172b57607f821691505b60208210810361174b57634e487b7160e01b600052602260045260246000fd5b50919050565b6020808252602d908201527f4552433732313a2063616c6c6572206973206e6f7420746f6b656e206f776e6560408201526c1c881bdc88185c1c1c9bdd9959609a1b606082015260800190565b634e487b7160e01b600052601160045260246000fd5b6000600182016117c6576117c661179e565b5060010190565b600083516117df81846020880161149d565b8351908301906117f381836020880161149d565b01949350505050565b634e487b7160e01b600052600160045260246000fd5b634e487b7160e01b600052603260045260246000fd5b818103818111156102e9576102e961179e565b808201808211156102e9576102e961179e565b60208082526025908201527f4552433732313a207472616e736665722066726f6d20696e636f72726563742060408201526437bbb732b960d91b606082015260800190565b60208082526032908201527f4552433732313a207472616e7366657220746f206e6f6e20455243373231526560408201527131b2b4bb32b91034b6b83632b6b2b73a32b960711b606082015260800190565b6001600160a01b0385811682528416602082015260408101839052608060608201819052600090611918908301846114c1565b9695505050505050565b60006020828403121561193457600080fd5b81516107048161146a56fea26469706673582212205b1ebace33430e22266c3ff3061e426114819f20e21daf0efcbd292c1eb1941d64736f6c63430008130033",
  "immutableReferences": {},
  "source": "// SPDX-License-Identifier: MIT\npragma solidity ^0.8.9;\n\nimport \"../node_modules/@openzeppelin/contracts/token/ERC721/ERC721.sol\";\n\ncontract RewardPoint is ERC721 {\n\n    uint tokenIdCounter = 1;\n    mapping(address owner => uint[] tokenIds) owner2tokenIds;\n\n    constructor() ERC721(\"RewardPoint\", \"RP\") {\n    }\n\n    modifier onlyOwnerOrApproved(uint tokenId) {\n        require(_isApprovedOrOwner(msg.sender, tokenId), \"caller is not token owner or approved\");\n        _;\n    }\n\n    function safeMint(address to) public {\n        uint tokenId = tokenIdCounter;\n        tokenIdCounter++;\n        _safeMint(to, tokenId);\n        owner2tokenIds[to].push(tokenId);\n    }\n\n    function safeBurn(uint tokenId) public onlyOwnerOrApproved(tokenId) {\n        address own = ownerOf(tokenId);\n        uint[] memory arr1 = owner2tokenIds[own];\n        uint[] memory arr2 = new uint[](arr1.length-1);\n        uint j = 0;\n        for(uint i; i<arr1.length; i++){\n            if(arr1[i] != tokenId) {\n                arr2[j] = arr1[i];\n                j++;\n            }\n        }\n        assert(j+1 == arr1.length);\n        owner2tokenIds[own] = arr2;\n        delete arr1;\n        _burn(tokenId);\n    }\n\n    function safeTransfer(address from, address to, uint tokenCount) public {\n        uint256 fromTokenCount = balanceOf(from);\n        require(fromTokenCount >= tokenCount);\n        assert(fromTokenCount == owner2tokenIds[from].length);\n        uint i = 0;\n        for(; i<tokenCount; i++){\n            safeTransferFrom(from, to, owner2tokenIds[from][i]);\n            owner2tokenIds[to].push(owner2tokenIds[from][i]);\n        }\n\n        uint newArrLength = fromTokenCount - tokenCount;\n        uint[] memory arr2 = new uint[](newArrLength);\n        for(uint j = 0; j<newArrLength; j++){\n            arr2[j] = owner2tokenIds[from][i];\n            i++;\n        }\n        assert(i - tokenCount == newArrLength);\n        delete owner2tokenIds[from];\n        owner2tokenIds[from] = arr2;\n\n    }\n\n    function getInfo(address add) view public returns(uint){\n        return owner2tokenIds[add].length;\n    }\n}\n",
  "sourcePath": "/Users/abhishekpaharia/software development/node_project/blockchain_project/qa-forum/contracts/RewardPoint.sol",
  "compiler": {
    "name": "solc",
    "version": "0.8.19+commit.7dd6d404.Emscripten.clang"
  },
  "schemaVersion": "3.4.13",
  "updatedAt": "2023-04-23T23:45:56.992Z",
  "networkType": "ethereum",
  "devdoc": {
    "events": {
      "Approval(address,address,uint256)": {
        "details": "Emitted when `owner` enables `approved` to manage the `tokenId` token."
      },
      "ApprovalForAll(address,address,bool)": {
        "details": "Emitted when `owner` enables or disables (`approved`) `operator` to manage all of its assets."
      },
      "Transfer(address,address,uint256)": {
        "details": "Emitted when `tokenId` token is transferred from `from` to `to`."
      }
    },
    "kind": "dev",
    "methods": {
      "approve(address,uint256)": {
        "details": "See {IERC721-approve}."
      },
      "balanceOf(address)": {
        "details": "See {IERC721-balanceOf}."
      },
      "getApproved(uint256)": {
        "details": "See {IERC721-getApproved}."
      },
      "isApprovedForAll(address,address)": {
        "details": "See {IERC721-isApprovedForAll}."
      },
      "name()": {
        "details": "See {IERC721Metadata-name}."
      },
      "ownerOf(uint256)": {
        "details": "See {IERC721-ownerOf}."
      },
      "safeTransferFrom(address,address,uint256)": {
        "details": "See {IERC721-safeTransferFrom}."
      },
      "safeTransferFrom(address,address,uint256,bytes)": {
        "details": "See {IERC721-safeTransferFrom}."
      },
      "setApprovalForAll(address,bool)": {
        "details": "See {IERC721-setApprovalForAll}."
      },
      "supportsInterface(bytes4)": {
        "details": "See {IERC165-supportsInterface}."
      },
      "symbol()": {
        "details": "See {IERC721Metadata-symbol}."
      },
      "tokenURI(uint256)": {
        "details": "See {IERC721Metadata-tokenURI}."
      },
      "transferFrom(address,address,uint256)": {
        "details": "See {IERC721-transferFrom}."
      }
    },
    "version": 1
  },
  "userdoc": {
    "kind": "user",
    "methods": {},
    "version": 1
  }
}