{
  "contractName": "RewardPoint",
  "abi": [
    {
      "inputs": [],
      "stateMutability": "nonpayable",
      "type": "constructor"
    },
    {
      "anonymous": false,
      "inputs": [
        {
          "indexed": true,
          "internalType": "address",
          "name": "owner",
          "type": "address"
        },
        {
          "indexed": true,
          "internalType": "address",
          "name": "approved",
          "type": "address"
        },
        {
          "indexed": true,
          "internalType": "uint256",
          "name": "tokenId",
          "type": "uint256"
        }
      ],
      "name": "Approval",
      "type": "event"
    },
    {
      "anonymous": false,
      "inputs": [
        {
          "indexed": true,
          "internalType": "address",
          "name": "owner",
          "type": "address"
        },
        {
          "indexed": true,
          "internalType": "address",
          "name": "operator",
          "type": "address"
        },
        {
          "indexed": false,
          "internalType": "bool",
          "name": "approved",
          "type": "bool"
        }
      ],
      "name": "ApprovalForAll",
      "type": "event"
    },
    {
      "anonymous": false,
      "inputs": [
        {
          "indexed": true,
          "internalType": "address",
          "name": "from",
          "type": "address"
        },
        {
          "indexed": true,
          "internalType": "address",
          "name": "to",
          "type": "address"
        },
        {
          "indexed": true,
          "internalType": "uint256",
          "name": "tokenId",
          "type": "uint256"
        }
      ],
      "name": "Transfer",
      "type": "event"
    },
    {
      "inputs": [
        {
          "internalType": "address",
          "name": "to",
          "type": "address"
        },
        {
          "internalType": "uint256",
          "name": "tokenId",
          "type": "uint256"
        }
      ],
      "name": "approve",
      "outputs": [],
      "stateMutability": "nonpayable",
      "type": "function"
    },
    {
      "inputs": [
        {
          "internalType": "address",
          "name": "owner",
          "type": "address"
        }
      ],
      "name": "balanceOf",
      "outputs": [
        {
          "internalType": "uint256",
          "name": "",
          "type": "uint256"
        }
      ],
      "stateMutability": "view",
      "type": "function"
    },
    {
      "inputs": [
        {
          "internalType": "uint256",
          "name": "tokenId",
          "type": "uint256"
        }
      ],
      "name": "getApproved",
      "outputs": [
        {
          "internalType": "address",
          "name": "",
          "type": "address"
        }
      ],
      "stateMutability": "view",
      "type": "function"
    },
    {
      "inputs": [
        {
          "internalType": "address",
          "name": "owner",
          "type": "address"
        },
        {
          "internalType": "address",
          "name": "operator",
          "type": "address"
        }
      ],
      "name": "isApprovedForAll",
      "outputs": [
        {
          "internalType": "bool",
          "name": "",
          "type": "bool"
        }
      ],
      "stateMutability": "view",
      "type": "function"
    },
    {
      "inputs": [],
      "name": "name",
      "outputs": [
        {
          "internalType": "string",
          "name": "",
          "type": "string"
        }
      ],
      "stateMutability": "view",
      "type": "function"
    },
    {
      "inputs": [
        {
          "internalType": "address",
          "name": "owner",
          "type": "address"
        },
        {
          "internalType": "uint256",
          "name": "",
          "type": "uint256"
        }
      ],
      "name": "owner2tokenIds",
      "outputs": [
        {
          "internalType": "uint256",
          "name": "tokenIds",
          "type": "uint256"
        }
      ],
      "stateMutability": "view",
      "type": "function"
    },
    {
      "inputs": [
        {
          "internalType": "uint256",
          "name": "tokenId",
          "type": "uint256"
        }
      ],
      "name": "ownerOf",
      "outputs": [
        {
          "internalType": "address",
          "name": "",
          "type": "address"
        }
      ],
      "stateMutability": "view",
      "type": "function"
    },
    {
      "inputs": [
        {
          "internalType": "address",
          "name": "from",
          "type": "address"
        },
        {
          "internalType": "address",
          "name": "to",
          "type": "address"
        },
        {
          "internalType": "uint256",
          "name": "tokenId",
          "type": "uint256"
        }
      ],
      "name": "safeTransferFrom",
      "outputs": [],
      "stateMutability": "nonpayable",
      "type": "function"
    },
    {
      "inputs": [
        {
          "internalType": "address",
          "name": "from",
          "type": "address"
        },
        {
          "internalType": "address",
          "name": "to",
          "type": "address"
        },
        {
          "internalType": "uint256",
          "name": "tokenId",
          "type": "uint256"
        },
        {
          "internalType": "bytes",
          "name": "data",
          "type": "bytes"
        }
      ],
      "name": "safeTransferFrom",
      "outputs": [],
      "stateMutability": "nonpayable",
      "type": "function"
    },
    {
      "inputs": [
        {
          "internalType": "address",
          "name": "operator",
          "type": "address"
        },
        {
          "internalType": "bool",
          "name": "approved",
          "type": "bool"
        }
      ],
      "name": "setApprovalForAll",
      "outputs": [],
      "stateMutability": "nonpayable",
      "type": "function"
    },
    {
      "inputs": [
        {
          "internalType": "bytes4",
          "name": "interfaceId",
          "type": "bytes4"
        }
      ],
      "name": "supportsInterface",
      "outputs": [
        {
          "internalType": "bool",
          "name": "",
          "type": "bool"
        }
      ],
      "stateMutability": "view",
      "type": "function"
    },
    {
      "inputs": [],
      "name": "symbol",
      "outputs": [
        {
          "internalType": "string",
          "name": "",
          "type": "string"
        }
      ],
      "stateMutability": "view",
      "type": "function"
    },
    {
      "inputs": [],
      "name": "tokenIdCounter",
      "outputs": [
        {
          "internalType": "uint256",
          "name": "",
          "type": "uint256"
        }
      ],
      "stateMutability": "view",
      "type": "function"
    },
    {
      "inputs": [
        {
          "internalType": "uint256",
          "name": "tokenId",
          "type": "uint256"
        }
      ],
      "name": "tokenURI",
      "outputs": [
        {
          "internalType": "string",
          "name": "",
          "type": "string"
        }
      ],
      "stateMutability": "view",
      "type": "function"
    },
    {
      "inputs": [
        {
          "internalType": "address",
          "name": "from",
          "type": "address"
        },
        {
          "internalType": "address",
          "name": "to",
          "type": "address"
        },
        {
          "internalType": "uint256",
          "name": "tokenId",
          "type": "uint256"
        }
      ],
      "name": "transferFrom",
      "outputs": [],
      "stateMutability": "nonpayable",
      "type": "function"
    },
    {
      "inputs": [
        {
          "internalType": "address",
          "name": "to",
          "type": "address"
        }
      ],
      "name": "safeMint",
      "outputs": [],
      "stateMutability": "nonpayable",
      "type": "function"
    },
    {
      "inputs": [
        {
          "internalType": "uint256",
          "name": "tokenId",
          "type": "uint256"
        }
      ],
      "name": "safeBurn",
      "outputs": [],
      "stateMutability": "nonpayable",
      "type": "function"
    },
    {
      "inputs": [
        {
          "internalType": "address",
          "name": "from",
          "type": "address"
        },
        {
          "internalType": "address",
          "name": "to",
          "type": "address"
        },
        {
          "internalType": "uint256",
          "name": "tokenCount",
          "type": "uint256"
        }
      ],
      "name": "safeTransfer",
      "outputs": [],
      "stateMutability": "nonpayable",
      "type": "function"
    },
    {
      "inputs": [
        {
          "internalType": "address",
          "name": "add",
          "type": "address"
        }
      ],
      "name": "getInfo",
      "outputs": [
        {
          "internalType": "uint256",
          "name": "",
          "type": "uint256"
        }
      ],
      "stateMutability": "view",
      "type": "function"
    },
    {
      "inputs": [
        {
          "internalType": "address",
          "name": "",
          "type": "address"
        },
        {
          "internalType": "address",
          "name": "",
          "type": "address"
        },
        {
          "internalType": "uint256",
          "name": "",
          "type": "uint256"
        },
        {
          "internalType": "bytes",
          "name": "",
          "type": "bytes"
        }
      ],
      "name": "onERC721Received",
      "outputs": [
        {
          "internalType": "bytes4",
          "name": "",
          "type": "bytes4"
        }
      ],
      "stateMutability": "nonpayable",
      "type": "function"
    }
  ],
  "bytecode": "0x608060405260016006553480156200001657600080fd5b506040518060400160405280600b81526020016a14995dd85c99141bda5b9d60aa1b81525060405180604001604052806002815260200161052560f41b815250816000908162000067919062000124565b50600162000076828262000124565b505050620001f0565b634e487b7160e01b600052604160045260246000fd5b600181811c90821680620000aa57607f821691505b602082108103620000cb57634e487b7160e01b600052602260045260246000fd5b50919050565b601f8211156200011f57600081815260208120601f850160051c81016020861015620000fa5750805b601f850160051c820191505b818110156200011b5782815560010162000106565b5050505b505050565b81516001600160401b038111156200014057620001406200007f565b620001588162000151845462000095565b84620000d1565b602080601f831160018114620001905760008415620001775750858301515b600019600386901b1c1916600185901b1785556200011b565b600085815260208120601f198616915b82811015620001c157888601518255948401946001909101908401620001a0565b5085821015620001e05787850151600019600388901b60f8161c191681555b5050505050600190811b01905550565b611a2880620002006000396000f3fe608060405234801561001057600080fd5b506004361061012c5760003560e01c806370a08231116100ad578063c87b56dd11610071578063c87b56dd14610291578063d1660f99146102a4578063dbf51325146102b7578063e985e9c5146102ca578063ffdd5cf1146102dd57600080fd5b806370a082311461024757806395d89b411461025a57806398bdf6f514610262578063a22cb4651461026b578063b88d4fde1461027e57600080fd5b806315c628b6116100f457806315c628b6146101da57806323b872dd146101fb57806340d097c31461020e57806342842e0e146102215780636352211e1461023457600080fd5b806301ffc9a71461013157806306fdde0314610159578063081812fc1461016e578063095ea7b314610199578063150b7a02146101ae575b600080fd5b61014461013f366004611533565b610306565b60405190151581526020015b60405180910390f35b610161610358565b60405161015091906115a0565b61018161017c3660046115b3565b6103ea565b6040516001600160a01b039091168152602001610150565b6101ac6101a73660046115e8565b610411565b005b6101c16101bc366004611628565b61052b565b6040516001600160e01b03199091168152602001610150565b6101ed6101e83660046115e8565b61053c565b604051908152602001610150565b6101ac610209366004611704565b61056d565b6101ac61021c366004611740565b61059e565b6101ac61022f366004611704565b6105f7565b6101816102423660046115b3565b610612565b6101ed610255366004611740565b610672565b6101616106f8565b6101ed60065481565b6101ac61027936600461175b565b610707565b6101ac61028c366004611628565b610716565b61016161029f3660046115b3565b61074e565b6101ac6102b2366004611704565b6107c2565b6101ac6102c53660046115b3565b6109fc565b6101446102d8366004611797565b610c08565b6101ed6102eb366004611740565b6001600160a01b031660009081526007602052604090205490565b60006001600160e01b031982166380ac58cd60e01b148061033757506001600160e01b03198216635b5e139f60e01b145b8061035257506301ffc9a760e01b6001600160e01b03198316145b92915050565b606060008054610367906117ca565b80601f0160208091040260200160405190810160405280929190818152602001828054610393906117ca565b80156103e05780601f106103b5576101008083540402835291602001916103e0565b820191906000526020600020905b8154815290600101906020018083116103c357829003601f168201915b5050505050905090565b60006103f582610c36565b506000908152600460205260409020546001600160a01b031690565b600061041c82610612565b9050806001600160a01b0316836001600160a01b03160361048e5760405162461bcd60e51b815260206004820152602160248201527f4552433732313a20617070726f76616c20746f2063757272656e74206f776e656044820152603960f91b60648201526084015b60405180910390fd5b336001600160a01b03821614806104aa57506104aa8133610c08565b61051c5760405162461bcd60e51b815260206004820152603d60248201527f4552433732313a20617070726f76652063616c6c6572206973206e6f7420746f60448201527f6b656e206f776e6572206f7220617070726f76656420666f7220616c6c0000006064820152608401610485565b6105268383610c98565b505050565b630a85bd0160e11b5b949350505050565b6007602052816000526040600020818154811061055857600080fd5b90600052602060002001600091509150505481565b6105773382610d06565b6105935760405162461bcd60e51b815260040161048590611804565b610526838383610d64565b6006805490819060006105b083611867565b91905055506105bf8282610ec8565b6105cb82336001610ee2565b6001600160a01b0390911660009081526007602090815260408220805460018101825590835291200155565b61052683838360405180602001604052806000815250610716565b6000818152600260205260408120546001600160a01b0316806103525760405162461bcd60e51b8152602060048201526018602482015277115490cdcc8c4e881a5b9d985b1a59081d1bdad95b88125160421b6044820152606401610485565b60006001600160a01b0382166106dc5760405162461bcd60e51b815260206004820152602960248201527f4552433732313a2061646472657373207a65726f206973206e6f7420612076616044820152683634b21037bbb732b960b91b6064820152608401610485565b506001600160a01b031660009081526003602052604090205490565b606060018054610367906117ca565b610712338383610ee2565b5050565b6107203383610d06565b61073c5760405162461bcd60e51b815260040161048590611804565b61074884848484610fb0565b50505050565b606061075982610c36565b600061077060408051602081019091526000815290565b9050600081511161079057604051806020016040528060008152506107bb565b8061079a84610fe3565b6040516020016107ab929190611880565b6040516020818303038152906040525b9392505050565b60006107cd84610672565b9050818110156107dc57600080fd5b6001600160a01b0384166000908152600760205260409020548114610803576108036118af565b60005b828110156108bd57610859858560076000896001600160a01b03166001600160a01b031681526020019081526020016000208481548110610849576108496118c5565b9060005260206000200154610d64565b6001600160a01b038085166000908152600760205260408082209288168252902080548390811061088c5761088c6118c5565b60009182526020808320909101548354600181018555938352912090910155806108b581611867565b915050610806565b60006108c984846118db565b905060008167ffffffffffffffff8111156108e6576108e6611612565b60405190808252806020026020018201604052801561090f578160200160208202803683370190505b50905060005b8281101561098f576001600160a01b0388166000908152600760205260409020805485908110610947576109476118c5565b9060005260206000200154828281518110610964576109646118c5565b60209081029190910101528361097981611867565b945050808061098790611867565b915050610915565b508161099b86856118db565b146109a8576109a86118af565b6001600160a01b03871660009081526007602052604081206109c99161149f565b6001600160a01b038716600090815260076020908152604090912082516109f2928401906114bd565b5050505050505050565b80610a073382610d06565b610a615760405162461bcd60e51b815260206004820152602560248201527f63616c6c6572206973206e6f7420746f6b656e206f776e6572206f72206170706044820152641c9bdd995960da1b6064820152608401610485565b6000610a6c83610612565b6001600160a01b038116600090815260076020908152604080832080548251818502810185019093528083529495509293909291830182828015610acf57602002820191906000526020600020905b815481526020019060010190808311610abb575b50505050509050600060018251610ae691906118db565b67ffffffffffffffff811115610afe57610afe611612565b604051908082528060200260200182016040528015610b27578160200160208202803683370190505b5090506000805b8351811015610bae5786848281518110610b4a57610b4a6118c5565b602002602001015114610b9c57838181518110610b6957610b696118c5565b6020026020010151838381518110610b8357610b836118c5565b602090810291909101015281610b9881611867565b9250505b80610ba681611867565b915050610b2e565b508251610bbc8260016118ee565b14610bc957610bc96118af565b6001600160a01b03841660009081526007602090815260409091208351610bf2928501906114bd565b5060609250610c0086611076565b505050505050565b6001600160a01b03918216600090815260056020908152604080832093909416825291909152205460ff1690565b6000818152600260205260409020546001600160a01b0316610c955760405162461bcd60e51b8152602060048201526018602482015277115490cdcc8c4e881a5b9d985b1a59081d1bdad95b88125160421b6044820152606401610485565b50565b600081815260046020526040902080546001600160a01b0319166001600160a01b0384169081179091558190610ccd82610612565b6001600160a01b03167f8c5be1e5ebec7d5bd14f71427d1e84f3dd0314c0f7b2291e5b200ac8c7c3b92560405160405180910390a45050565b600080610d1283610612565b9050806001600160a01b0316846001600160a01b03161480610d395750610d398185610c08565b806105345750836001600160a01b0316610d52846103ea565b6001600160a01b031614949350505050565b826001600160a01b0316610d7782610612565b6001600160a01b031614610d9d5760405162461bcd60e51b815260040161048590611901565b6001600160a01b038216610dff5760405162461bcd60e51b8152602060048201526024808201527f4552433732313a207472616e7366657220746f20746865207a65726f206164646044820152637265737360e01b6064820152608401610485565b826001600160a01b0316610e1282610612565b6001600160a01b031614610e385760405162461bcd60e51b815260040161048590611901565b600081815260046020908152604080832080546001600160a01b03199081169091556001600160a01b0387811680865260038552838620805460001901905590871680865283862080546001019055868652600290945282852080549092168417909155905184937fddf252ad1be2c89b69c2b068fc378daa952ba7f163c4a11628f55a4df523b3ef91a4505050565b61071282826040518060200160405280600081525061110b565b816001600160a01b0316836001600160a01b031603610f435760405162461bcd60e51b815260206004820152601960248201527f4552433732313a20617070726f766520746f2063616c6c6572000000000000006044820152606401610485565b6001600160a01b03838116600081815260056020908152604080832094871680845294825291829020805460ff191686151590811790915591519182527f17307eab39ab6107e8899845ad3d59bd9653f200f220920489ca2b5937696c31910160405180910390a3505050565b610fbb848484610d64565b610fc78484848461113e565b6107485760405162461bcd60e51b815260040161048590611946565b60606000610ff08361123c565b600101905060008167ffffffffffffffff81111561101057611010611612565b6040519080825280601f01601f19166020018201604052801561103a576020820181803683370190505b5090508181016020015b600019016f181899199a1a9b1b9c1cb0b131b232b360811b600a86061a8153600a850494508461104457509392505050565b600061108182610612565b905061108c82610612565b600083815260046020908152604080832080546001600160a01b03199081169091556001600160a01b0385168085526003845282852080546000190190558785526002909352818420805490911690555192935084927fddf252ad1be2c89b69c2b068fc378daa952ba7f163c4a11628f55a4df523b3ef908390a45050565b6111158383611314565b611122600084848461113e565b6105265760405162461bcd60e51b815260040161048590611946565b60006001600160a01b0384163b1561123457604051630a85bd0160e11b81526001600160a01b0385169063150b7a0290611182903390899088908890600401611998565b6020604051808303816000875af19250505080156111bd575060408051601f3d908101601f191682019092526111ba918101906119d5565b60015b61121a573d8080156111eb576040519150601f19603f3d011682016040523d82523d6000602084013e6111f0565b606091505b5080516000036112125760405162461bcd60e51b815260040161048590611946565b805181602001fd5b6001600160e01b031916630a85bd0160e11b149050610534565b506001610534565b60008072184f03e93ff9f4daa797ed6e38ed64bf6a1f0160401b831061127b5772184f03e93ff9f4daa797ed6e38ed64bf6a1f0160401b830492506040015b6d04ee2d6d415b85acef810000000083106112a7576d04ee2d6d415b85acef8100000000830492506020015b662386f26fc1000083106112c557662386f26fc10000830492506010015b6305f5e10083106112dd576305f5e100830492506008015b61271083106112f157612710830492506004015b60648310611303576064830492506002015b600a83106103525760010192915050565b6001600160a01b03821661136a5760405162461bcd60e51b815260206004820181905260248201527f4552433732313a206d696e7420746f20746865207a65726f20616464726573736044820152606401610485565b6000818152600260205260409020546001600160a01b0316156113cf5760405162461bcd60e51b815260206004820152601c60248201527f4552433732313a20746f6b656e20616c7265616479206d696e746564000000006044820152606401610485565b6000818152600260205260409020546001600160a01b0316156114345760405162461bcd60e51b815260206004820152601c60248201527f4552433732313a20746f6b656e20616c7265616479206d696e746564000000006044820152606401610485565b6001600160a01b038216600081815260036020908152604080832080546001019055848352600290915280822080546001600160a01b0319168417905551839291907fddf252ad1be2c89b69c2b068fc378daa952ba7f163c4a11628f55a4df523b3ef908290a45050565b5080546000825590600052602060002090810190610c959190611508565b8280548282559060005260206000209081019282156114f8579160200282015b828111156114f85782518255916020019190600101906114dd565b50611504929150611508565b5090565b5b808211156115045760008155600101611509565b6001600160e01b031981168114610c9557600080fd5b60006020828403121561154557600080fd5b81356107bb8161151d565b60005b8381101561156b578181015183820152602001611553565b50506000910152565b6000815180845261158c816020860160208601611550565b601f01601f19169290920160200192915050565b6020815260006107bb6020830184611574565b6000602082840312156115c557600080fd5b5035919050565b80356001600160a01b03811681146115e357600080fd5b919050565b600080604083850312156115fb57600080fd5b611604836115cc565b946020939093013593505050565b634e487b7160e01b600052604160045260246000fd5b6000806000806080858703121561163e57600080fd5b611647856115cc565b9350611655602086016115cc565b925060408501359150606085013567ffffffffffffffff8082111561167957600080fd5b818701915087601f83011261168d57600080fd5b81358181111561169f5761169f611612565b604051601f8201601f19908116603f011681019083821181831017156116c7576116c7611612565b816040528281528a60208487010111156116e057600080fd5b82602086016020830137600060208483010152809550505050505092959194509250565b60008060006060848603121561171957600080fd5b611722846115cc565b9250611730602085016115cc565b9150604084013590509250925092565b60006020828403121561175257600080fd5b6107bb826115cc565b6000806040838503121561176e57600080fd5b611777836115cc565b91506020830135801515811461178c57600080fd5b809150509250929050565b600080604083850312156117aa57600080fd5b6117b3836115cc565b91506117c1602084016115cc565b90509250929050565b600181811c908216806117de57607f821691505b6020821081036117fe57634e487b7160e01b600052602260045260246000fd5b50919050565b6020808252602d908201527f4552433732313a2063616c6c6572206973206e6f7420746f6b656e206f776e6560408201526c1c881bdc88185c1c1c9bdd9959609a1b606082015260800190565b634e487b7160e01b600052601160045260246000fd5b60006001820161187957611879611851565b5060010190565b60008351611892818460208801611550565b8351908301906118a6818360208801611550565b01949350505050565b634e487b7160e01b600052600160045260246000fd5b634e487b7160e01b600052603260045260246000fd5b8181038181111561035257610352611851565b8082018082111561035257610352611851565b60208082526025908201527f4552433732313a207472616e736665722066726f6d20696e636f72726563742060408201526437bbb732b960d91b606082015260800190565b60208082526032908201527f4552433732313a207472616e7366657220746f206e6f6e20455243373231526560408201527131b2b4bb32b91034b6b83632b6b2b73a32b960711b606082015260800190565b6001600160a01b03858116825284166020820152604081018390526080606082018190526000906119cb90830184611574565b9695505050505050565b6000602082840312156119e757600080fd5b81516107bb8161151d56fea264697066735822122043a011d43da3fc2824adf7b79830ca07850a2f5a726b21704ca355c6eae87bc664736f6c63430008130033",
  "immutableReferences": {},
  "source": "// SPDX-License-Identifier: MIT\npragma solidity ^0.8.9;\n\n//import \"@openzeppelin/contracts@4.8.2/token/ERC721/ERC721.sol\";\nimport \"../node_modules/@openzeppelin/contracts/token/ERC721/ERC721.sol\";\n\n\ncontract RewardPoint is ERC721, IERC721Receiver {\n\n    uint public tokenIdCounter = 1;\n    mapping(address owner => uint[] tokenIds) public owner2tokenIds;\n\n    constructor() ERC721(\"RewardPoint\", \"RP\") {\n    }\n\n    modifier onlyOwnerOrApproved(uint tokenId) {\n        require(_isApprovedOrOwner(msg.sender, tokenId), \"caller is not token owner or approved\");\n        _;\n    }\n\n    function safeMint(address to) public {\n        uint tokenId = tokenIdCounter;\n        tokenIdCounter++;\n        _safeMint(to, tokenId);\n        _setApprovalForAll(to, msg.sender, true);\n        owner2tokenIds[to].push(tokenId);\n    }\n\n    function safeBurn(uint tokenId) public onlyOwnerOrApproved(tokenId) {\n        address own = ownerOf(tokenId);\n        uint[] memory arr1 = owner2tokenIds[own];\n        uint[] memory arr2 = new uint[](arr1.length-1);\n        uint j = 0;\n        for(uint i; i<arr1.length; i++){\n            if(arr1[i] != tokenId) {\n                arr2[j] = arr1[i];\n                j++;\n            }\n        }\n        assert(j+1 == arr1.length);\n        owner2tokenIds[own] = arr2;\n        delete arr1;\n        _burn(tokenId);\n    }\n\n    function safeTransfer(address from, address to, uint tokenCount) public {\n        uint256 fromTokenCount = balanceOf(from);\n        require(fromTokenCount >= tokenCount);\n        assert(fromTokenCount == owner2tokenIds[from].length);\n        //require(msg.sender == from, \"msg sender is not same as owner of token\");\n        uint i = 0;\n        for(; i<tokenCount; i++){\n            _transfer(from, to, owner2tokenIds[from][i]);\n            owner2tokenIds[to].push(owner2tokenIds[from][i]);\n        }\n\n        uint newArrLength = fromTokenCount - tokenCount;\n        uint[] memory arr2 = new uint[](newArrLength);\n        for(uint j = 0; j<newArrLength; j++){\n            arr2[j] = owner2tokenIds[from][i];\n            i++;\n        }\n        assert(i - tokenCount == newArrLength);\n        delete owner2tokenIds[from];\n        owner2tokenIds[from] = arr2;\n\n    }\n\n    function getInfo(address add) view public returns(uint){\n        return owner2tokenIds[add].length;\n    }\n\n    function onERC721Received(address, address, uint256, bytes memory) public virtual override returns (bytes4) {\n        return IERC721Receiver.onERC721Received.selector;\n        //return IERC721.onERC721Received.selector;\n    }\n}\n",
  "sourcePath": "/Users/abhishekpaharia/software development/node_project/blockchain_project/qa-forum/contracts/RewardPoint.sol",
  "compiler": {
    "name": "solc",
    "version": "0.8.19+commit.7dd6d404.Emscripten.clang"
  },
  "schemaVersion": "3.4.13",
  "updatedAt": "2023-04-28T04:54:51.113Z",
  "devdoc": {
    "events": {
      "Approval(address,address,uint256)": {
        "details": "Emitted when `owner` enables `approved` to manage the `tokenId` token."
      },
      "ApprovalForAll(address,address,bool)": {
        "details": "Emitted when `owner` enables or disables (`approved`) `operator` to manage all of its assets."
      },
      "Transfer(address,address,uint256)": {
        "details": "Emitted when `tokenId` token is transferred from `from` to `to`."
      }
    },
    "kind": "dev",
    "methods": {
      "approve(address,uint256)": {
        "details": "See {IERC721-approve}."
      },
      "balanceOf(address)": {
        "details": "See {IERC721-balanceOf}."
      },
      "getApproved(uint256)": {
        "details": "See {IERC721-getApproved}."
      },
      "isApprovedForAll(address,address)": {
        "details": "See {IERC721-isApprovedForAll}."
      },
      "name()": {
        "details": "See {IERC721Metadata-name}."
      },
      "ownerOf(uint256)": {
        "details": "See {IERC721-ownerOf}."
      },
      "safeTransferFrom(address,address,uint256)": {
        "details": "See {IERC721-safeTransferFrom}."
      },
      "safeTransferFrom(address,address,uint256,bytes)": {
        "details": "See {IERC721-safeTransferFrom}."
      },
      "setApprovalForAll(address,bool)": {
        "details": "See {IERC721-setApprovalForAll}."
      },
      "supportsInterface(bytes4)": {
        "details": "See {IERC165-supportsInterface}."
      },
      "symbol()": {
        "details": "See {IERC721Metadata-symbol}."
      },
      "tokenURI(uint256)": {
        "details": "See {IERC721Metadata-tokenURI}."
      },
      "transferFrom(address,address,uint256)": {
        "details": "See {IERC721-transferFrom}."
      }
    },
    "version": 1
  },
  "userdoc": {
    "kind": "user",
    "methods": {},
    "version": 1
  }
}