{
  "contractName": "TodoList",
  "abi": [
    {
      "inputs": [],
      "stateMutability": "nonpayable",
      "type": "constructor"
    },
    {
      "anonymous": false,
      "inputs": [
        {
          "indexed": false,
          "internalType": "uint256",
          "name": "id",
          "type": "uint256"
        },
        {
          "indexed": false,
          "internalType": "string",
          "name": "content",
          "type": "string"
        },
        {
          "indexed": false,
          "internalType": "bool",
          "name": "completed",
          "type": "bool"
        }
      ],
      "name": "TaskCreated",
      "type": "event"
    },
    {
      "anonymous": false,
      "inputs": [
        {
          "indexed": false,
          "internalType": "uint256",
          "name": "id",
          "type": "uint256"
        },
        {
          "indexed": false,
          "internalType": "bool",
          "name": "completed",
          "type": "bool"
        }
      ],
      "name": "TaskToggled",
      "type": "event"
    },
    {
      "inputs": [],
      "name": "owner",
      "outputs": [
        {
          "internalType": "address",
          "name": "",
          "type": "address"
        }
      ],
      "stateMutability": "view",
      "type": "function",
      "constant": true
    },
    {
      "inputs": [
        {
          "internalType": "address",
          "name": "",
          "type": "address"
        },
        {
          "internalType": "uint256",
          "name": "",
          "type": "uint256"
        }
      ],
      "name": "tasks",
      "outputs": [
        {
          "internalType": "uint256",
          "name": "id",
          "type": "uint256"
        },
        {
          "internalType": "string",
          "name": "content",
          "type": "string"
        },
        {
          "internalType": "bool",
          "name": "completed",
          "type": "bool"
        }
      ],
      "stateMutability": "view",
      "type": "function",
      "constant": true
    },
    {
      "inputs": [
        {
          "internalType": "address",
          "name": "",
          "type": "address"
        }
      ],
      "name": "tasksCount",
      "outputs": [
        {
          "internalType": "uint256",
          "name": "",
          "type": "uint256"
        }
      ],
      "stateMutability": "view",
      "type": "function",
      "constant": true
    },
    {
      "inputs": [
        {
          "internalType": "string",
          "name": "_content",
          "type": "string"
        }
      ],
      "name": "createTask",
      "outputs": [],
      "stateMutability": "nonpayable",
      "type": "function"
    },
    {
      "inputs": [
        {
          "internalType": "uint256",
          "name": "_id",
          "type": "uint256"
        }
      ],
      "name": "toggleCompleted",
      "outputs": [],
      "stateMutability": "nonpayable",
      "type": "function"
    }
  ],
  "bytecode": "0x608060405234801561001057600080fd5b5060408051808201909152600e81526d48656c6c6f20576f726c6421212160901b602082015261003f90610056565b600280546001600160a01b03191633179055610309565b33600081815260016020818152604080842054815160608101835281815280840188815281840187905296865285845282862082875290935293208151815593519293909290918201906100aa90826101c4565b50604091820151600291909101805460ff1916911515919091179055517f05d0fb833127fc08168556d0e7ca9554fc3f6bc843b3b7d2bf1c35aea6bab660906100f99083908590600090610283565b60405180910390a133600090815260016020526040812080549161011c836102e2565b91905055505050565b634e487b7160e01b600052604160045260246000fd5b600181811c9082168061014f57607f821691505b60208210810361016f57634e487b7160e01b600052602260045260246000fd5b50919050565b601f8211156101bf57600081815260208120601f850160051c8101602086101561019c5750805b601f850160051c820191505b818110156101bb578281556001016101a8565b5050505b505050565b81516001600160401b038111156101dd576101dd610125565b6101f1816101eb845461013b565b84610175565b602080601f831160018114610226576000841561020e5750858301515b600019600386901b1c1916600185901b1785556101bb565b600085815260208120601f198616915b8281101561025557888601518255948401946001909101908401610236565b50858210156102735787850151600019600388901b60f8161c191681555b5050505050600190811b01905550565b83815260006020606081840152845180606085015260005b818110156102b75786810183015185820160800152820161029b565b506000608082860101526080601f19601f830116850101925050508215156040830152949350505050565b60006001820161030257634e487b7160e01b600052601160045260246000fd5b5060010190565b61073d806103186000396000f3fe608060405234801561001057600080fd5b50600436106100575760003560e01c8063111002aa1461005c578063455f5024146100715780637149d2e4146100845780637b219c39146100af5780638da5cb5b146100dd575b600080fd5b61006f61006a366004610406565b610108565b005b61006f61007f3660046104b7565b6101d7565b6100976100923660046104ec565b61033a565b6040516100a693929190610516565b60405180910390f35b6100cf6100bd366004610575565b60016020526000908152604090205481565b6040519081526020016100a6565b6002546100f0906001600160a01b031681565b6040516001600160a01b0390911681526020016100a6565b336000818152600160208181526040808420548151606081018352818152808401888152818401879052968652858452828620828752909352932081518155935192939092909182019061015c9082610620565b50604091820151600291909101805460ff1916911515919091179055517f05d0fb833127fc08168556d0e7ca9554fc3f6bc843b3b7d2bf1c35aea6bab660906101ab9083908590600090610516565b60405180910390a13360009081526001602052604081208054916101ce836106e0565b91905055505050565b33600090815260208181526040808320848452825280832081516060810190925280548252600181018054929391929184019161021390610597565b80601f016020809104026020016040519081016040528092919081815260200182805461023f90610597565b801561028c5780601f106102615761010080835404028352916020019161028c565b820191906000526020600020905b81548152906001019060200180831161026f57829003601f168201915b50505091835250506002919091015460ff161515602091820152604080830180511590523360009081528083528181208682528352208251815590820151919250829160018201906102de9082610620565b50604091820151600291909101805460ff191691151591909117905581810151815184815290151560208201527fe668c7a227d9261aa1f964bf5a852ab642446a7af6c29405caf8d0e9ce2c11f0910160405180910390a15050565b60006020818152928152604080822090935290815220805460018201805491929161036490610597565b80601f016020809104026020016040519081016040528092919081815260200182805461039090610597565b80156103dd5780601f106103b2576101008083540402835291602001916103dd565b820191906000526020600020905b8154815290600101906020018083116103c057829003601f168201915b5050506002909301549192505060ff1683565b634e487b7160e01b600052604160045260246000fd5b60006020828403121561041857600080fd5b813567ffffffffffffffff8082111561043057600080fd5b818401915084601f83011261044457600080fd5b813581811115610456576104566103f0565b604051601f8201601f19908116603f0116810190838211818310171561047e5761047e6103f0565b8160405282815287602084870101111561049757600080fd5b826020860160208301376000928101602001929092525095945050505050565b6000602082840312156104c957600080fd5b5035919050565b80356001600160a01b03811681146104e757600080fd5b919050565b600080604083850312156104ff57600080fd5b610508836104d0565b946020939093013593505050565b83815260006020606081840152845180606085015260005b8181101561054a5786810183015185820160800152820161052e565b506000608082860101526080601f19601f830116850101925050508215156040830152949350505050565b60006020828403121561058757600080fd5b610590826104d0565b9392505050565b600181811c908216806105ab57607f821691505b6020821081036105cb57634e487b7160e01b600052602260045260246000fd5b50919050565b601f82111561061b57600081815260208120601f850160051c810160208610156105f85750805b601f850160051c820191505b8181101561061757828155600101610604565b5050505b505050565b815167ffffffffffffffff81111561063a5761063a6103f0565b61064e816106488454610597565b846105d1565b602080601f831160018114610683576000841561066b5750858301515b600019600386901b1c1916600185901b178555610617565b600085815260208120601f198616915b828110156106b257888601518255948401946001909101908401610693565b50858210156106d05787850151600019600388901b60f8161c191681555b5050505050600190811b01905550565b60006001820161070057634e487b7160e01b600052601160045260246000fd5b506001019056fea2646970667358221220bd5c9c6237964098d17ba08767130305303683c912166a4af9771803612eca9964736f6c63430008130033",
  "immutableReferences": {},
  "source": "// SPDX-License-Identifier: MIT\npragma solidity >=0.4.22 <0.9.0;\n\ncontract TodoList {\n  struct Task {\n        uint id;\n        string content;\n        bool completed;\n    }\n\n    event TaskCreated (\n        uint id,\n        string content,\n        bool completed\n    );\n\n    event TaskToggled (\n        uint id,\n        bool completed\n    );\n\n    mapping(address => mapping(uint => Task)) public tasks;\n    mapping(address => uint) public tasksCount;\n    address public owner; \n\n\n    constructor() {\n        createTask(\"Hello World!!!\");\n        owner = msg.sender;\n    }\n\n    function createTask(string memory _content) public {\n        uint taskCount = tasksCount[msg.sender];\n        tasks[msg.sender][taskCount] = Task(taskCount, _content, false);\n        emit TaskCreated(taskCount, _content, false);\n        tasksCount[msg.sender]++;\n    }\n\n    function toggleCompleted(uint _id) public {\n        Task memory task = tasks[msg.sender][_id];\n        task.completed = !task.completed;\n        tasks[msg.sender][_id] = task;\n        emit TaskToggled(_id, task.completed);\n    }\n}\n",
  "sourcePath": "/Users/abhishekpaharia/software development/node_project/blockchain_project/qa-forum/contracts/TodoList.sol",
  "compiler": {
    "name": "solc",
    "version": "0.8.19+commit.7dd6d404.Emscripten.clang"
  },
  "schemaVersion": "3.4.13",
  "updatedAt": "2023-04-23T19:43:13.786Z",
  "networkType": "ethereum",
  "devdoc": {
    "kind": "dev",
    "methods": {},
    "version": 1
  },
  "userdoc": {
    "kind": "user",
    "methods": {},
    "version": 1
  }
}